{
  "contractName": "TokenVesting",
  "abi": [
    {
      "inputs": [
        {
          "internalType": "contract IERC20",
          "name": "token_",
          "type": "address"
        }
      ],
      "stateMutability": "nonpayable",
      "type": "constructor"
    },
    {
      "anonymous": false,
      "inputs": [
        {
          "indexed": true,
          "internalType": "address",
          "name": "grantHolder",
          "type": "address"
        }
      ],
      "name": "GrantRevoked",
      "type": "event"
    },
    {
      "anonymous": false,
      "inputs": [
        {
          "indexed": true,
          "internalType": "address",
          "name": "previousOwner",
          "type": "address"
        },
        {
          "indexed": true,
          "internalType": "address",
          "name": "newOwner",
          "type": "address"
        }
      ],
      "name": "OwnershipTransferred",
      "type": "event"
    },
    {
      "anonymous": false,
      "inputs": [
        {
          "indexed": true,
          "internalType": "address",
          "name": "vestingLocation",
          "type": "address"
        },
        {
          "indexed": false,
          "internalType": "uint32",
          "name": "cliffDuration",
          "type": "uint32"
        },
        {
          "indexed": false,
          "internalType": "uint32",
          "name": "duration",
          "type": "uint32"
        },
        {
          "indexed": false,
          "internalType": "uint32",
          "name": "interval",
          "type": "uint32"
        },
        {
          "indexed": false,
          "internalType": "bool",
          "name": "isRevocable",
          "type": "bool"
        }
      ],
      "name": "VestingScheduleCreated",
      "type": "event"
    },
    {
      "anonymous": false,
      "inputs": [
        {
          "indexed": true,
          "internalType": "address",
          "name": "beneficiary",
          "type": "address"
        },
        {
          "indexed": false,
          "internalType": "uint256",
          "name": "amount",
          "type": "uint256"
        }
      ],
      "name": "VestingTokensClaimed",
      "type": "event"
    },
    {
      "anonymous": false,
      "inputs": [
        {
          "indexed": true,
          "internalType": "address",
          "name": "beneficiary",
          "type": "address"
        },
        {
          "indexed": false,
          "internalType": "uint256",
          "name": "vestingAmount",
          "type": "uint256"
        },
        {
          "indexed": false,
          "internalType": "uint32",
          "name": "startDay",
          "type": "uint32"
        },
        {
          "indexed": false,
          "internalType": "address",
          "name": "vestingLocation",
          "type": "address"
        }
      ],
      "name": "VestingTokensGranted",
      "type": "event"
    },
    {
      "inputs": [],
      "name": "owner",
      "outputs": [
        {
          "internalType": "address",
          "name": "",
          "type": "address"
        }
      ],
      "stateMutability": "view",
      "type": "function"
    },
    {
      "inputs": [],
      "name": "renounceOwnership",
      "outputs": [],
      "stateMutability": "nonpayable",
      "type": "function"
    },
    {
      "inputs": [
        {
          "internalType": "address",
          "name": "newOwner",
          "type": "address"
        }
      ],
      "name": "transferOwnership",
      "outputs": [],
      "stateMutability": "nonpayable",
      "type": "function"
    },
    {
      "inputs": [],
      "name": "token",
      "outputs": [
        {
          "internalType": "contract IERC20",
          "name": "",
          "type": "address"
        }
      ],
      "stateMutability": "view",
      "type": "function"
    },
    {
      "inputs": [
        {
          "internalType": "address payable",
          "name": "beneficiary",
          "type": "address"
        }
      ],
      "name": "kill",
      "outputs": [],
      "stateMutability": "nonpayable",
      "type": "function"
    },
    {
      "inputs": [
        {
          "internalType": "address",
          "name": "beneficiary",
          "type": "address"
        },
        {
          "internalType": "uint256",
          "name": "amount",
          "type": "uint256"
        }
      ],
      "name": "withdrawTokens",
      "outputs": [],
      "stateMutability": "nonpayable",
      "type": "function"
    },
    {
      "inputs": [
        {
          "internalType": "address",
          "name": "beneficiary",
          "type": "address"
        }
      ],
      "name": "claimVestingTokens",
      "outputs": [],
      "stateMutability": "nonpayable",
      "type": "function"
    },
    {
      "inputs": [],
      "name": "claimVestingTokensForAll",
      "outputs": [],
      "stateMutability": "nonpayable",
      "type": "function"
    },
    {
      "inputs": [
        {
          "internalType": "address",
          "name": "vestingLocation",
          "type": "address"
        },
        {
          "internalType": "uint32",
          "name": "cliffDuration",
          "type": "uint32"
        },
        {
          "internalType": "uint32",
          "name": "duration",
          "type": "uint32"
        },
        {
          "internalType": "uint32",
          "name": "interval",
          "type": "uint32"
        },
        {
          "internalType": "bool",
          "name": "isRevocable",
          "type": "bool"
        }
      ],
      "name": "setVestingSchedule",
      "outputs": [],
      "stateMutability": "nonpayable",
      "type": "function"
    },
    {
      "inputs": [
        {
          "internalType": "address",
          "name": "beneficiary",
          "type": "address"
        },
        {
          "internalType": "uint256",
          "name": "vestingAmount",
          "type": "uint256"
        },
        {
          "internalType": "uint32",
          "name": "startDay",
          "type": "uint32"
        },
        {
          "internalType": "uint32",
          "name": "duration",
          "type": "uint32"
        },
        {
          "internalType": "uint32",
          "name": "cliffDuration",
          "type": "uint32"
        },
        {
          "internalType": "uint32",
          "name": "interval",
          "type": "uint32"
        },
        {
          "internalType": "bool",
          "name": "isRevocable",
          "type": "bool"
        }
      ],
      "name": "addGrant",
      "outputs": [],
      "stateMutability": "nonpayable",
      "type": "function"
    },
    {
      "inputs": [
        {
          "internalType": "address",
          "name": "beneficiary",
          "type": "address"
        },
        {
          "internalType": "uint256",
          "name": "vestingAmount",
          "type": "uint256"
        },
        {
          "internalType": "uint32",
          "name": "startDay",
          "type": "uint32"
        },
        {
          "internalType": "address",
          "name": "vestingLocation",
          "type": "address"
        }
      ],
      "name": "addGrantWithScheduleAt",
      "outputs": [],
      "stateMutability": "nonpayable",
      "type": "function"
    },
    {
      "inputs": [
        {
          "internalType": "address",
          "name": "beneficiary",
          "type": "address"
        },
        {
          "internalType": "uint256",
          "name": "vestingAmount",
          "type": "uint256"
        },
        {
          "internalType": "uint32",
          "name": "duration",
          "type": "uint32"
        },
        {
          "internalType": "uint32",
          "name": "cliffDuration",
          "type": "uint32"
        },
        {
          "internalType": "uint32",
          "name": "interval",
          "type": "uint32"
        },
        {
          "internalType": "bool",
          "name": "isRevocable",
          "type": "bool"
        }
      ],
      "name": "addGrantFromToday",
      "outputs": [],
      "stateMutability": "nonpayable",
      "type": "function"
    },
    {
      "inputs": [],
      "name": "today",
      "outputs": [
        {
          "internalType": "uint32",
          "name": "dayNumber",
          "type": "uint32"
        }
      ],
      "stateMutability": "view",
      "type": "function"
    },
    {
      "inputs": [
        {
          "internalType": "address",
          "name": "grantHolder",
          "type": "address"
        },
        {
          "internalType": "uint32",
          "name": "onDayOrToday",
          "type": "uint32"
        }
      ],
      "name": "getGrantInfo",
      "outputs": [
        {
          "internalType": "uint256",
          "name": "amountVested",
          "type": "uint256"
        },
        {
          "internalType": "uint256",
          "name": "amountNotVested",
          "type": "uint256"
        },
        {
          "internalType": "uint256",
          "name": "amountOfGrant",
          "type": "uint256"
        },
        {
          "internalType": "uint256",
          "name": "amountAvailable",
          "type": "uint256"
        },
        {
          "internalType": "uint256",
          "name": "amountClaimed",
          "type": "uint256"
        },
        {
          "internalType": "uint32",
          "name": "vestStartDay",
          "type": "uint32"
        },
        {
          "internalType": "bool",
          "name": "isActive",
          "type": "bool"
        },
        {
          "internalType": "bool",
          "name": "wasRevoked",
          "type": "bool"
        }
      ],
      "stateMutability": "view",
      "type": "function"
    },
    {
      "inputs": [
        {
          "internalType": "address",
          "name": "vestingLocation",
          "type": "address"
        }
      ],
      "name": "getScheduleAtInfo",
      "outputs": [
        {
          "internalType": "bool",
          "name": "isRevocable",
          "type": "bool"
        },
        {
          "internalType": "uint32",
          "name": "vestDuration",
          "type": "uint32"
        },
        {
          "internalType": "uint32",
          "name": "cliffDuration",
          "type": "uint32"
        },
        {
          "internalType": "uint32",
          "name": "vestIntervalDays",
          "type": "uint32"
        }
      ],
      "stateMutability": "view",
      "type": "function"
    },
    {
      "inputs": [
        {
          "internalType": "address",
          "name": "grantHolder",
          "type": "address"
        }
      ],
      "name": "getScheduleInfo",
      "outputs": [
        {
          "internalType": "bool",
          "name": "isRevocable",
          "type": "bool"
        },
        {
          "internalType": "uint32",
          "name": "vestDuration",
          "type": "uint32"
        },
        {
          "internalType": "uint32",
          "name": "cliffDuration",
          "type": "uint32"
        },
        {
          "internalType": "uint32",
          "name": "vestIntervalDays",
          "type": "uint32"
        }
      ],
      "stateMutability": "view",
      "type": "function"
    },
    {
      "inputs": [
        {
          "internalType": "address",
          "name": "grantHolder",
          "type": "address"
        }
      ],
      "name": "revokeGrant",
      "outputs": [],
      "stateMutability": "nonpayable",
      "type": "function"
    }
  ],
  "bytecode": "0x60806040523480156200001157600080fd5b5060405162002ef238038062002ef2833981810160405260208110156200003757600080fd5b8101908080519060200190929190505050600062000063620001ed640100000000026401000000009004565b9050806000806101000a81548173ffffffffffffffffffffffffffffffffffffffff021916908373ffffffffffffffffffffffffffffffffffffffff1602179055508073ffffffffffffffffffffffffffffffffffffffff16600073ffffffffffffffffffffffffffffffffffffffff167f8be0079c531659141344cd1fd0a4f28419497f9722a3daafe3b4186f6b6457e060405160405180910390a350600073ffffffffffffffffffffffffffffffffffffffff168173ffffffffffffffffffffffffffffffffffffffff161415620001a5576040517f08c379a000000000000000000000000000000000000000000000000000000000815260040180806020018281038252601e8152602001807f746f6b656e206d757374206265206e6f6e2d7a65726f2061646472657373000081525060200191505060405180910390fd5b80600460006101000a81548173ffffffffffffffffffffffffffffffffffffffff021916908373ffffffffffffffffffffffffffffffffffffffff16021790555050620001f5565b600033905090565b612ced80620002056000396000f3fe608060405234801561001057600080fd5b5060043610610128576000357c010000000000000000000000000000000000000000000000000000000090048063996a63b9116100bf578063cbf0b0c01161008e578063cbf0b0c014610568578063e1af3c05146105ac578063f2fde38b14610636578063f9214eec1461067a578063fc0c546a146106be57610128565b8063996a63b9146103c5578063abd4818414610443578063abe72d3e146104c4578063b74e452b1461054457610128565b80636db656c3116100fb5780636db656c31461024a578063715018a6146102e45780638da5cb5b146102ee5780638dc651fd1461032257610128565b806306b091f91461012d5780631817c5a71461017b57806336ccda4f146101bf5780635649240614610240575b600080fd5b6101796004803603604081101561014357600080fd5b81019080803573ffffffffffffffffffffffffffffffffffffffff169060200190929190803590602001909291905050506106f2565b005b6101bd6004803603602081101561019157600080fd5b81019080803573ffffffffffffffffffffffffffffffffffffffff1690602001909291905050506107af565b005b610201600480360360208110156101d557600080fd5b81019080803573ffffffffffffffffffffffffffffffffffffffff169060200190929190505050610b0e565b6040518085151581526020018463ffffffff1681526020018363ffffffff1681526020018263ffffffff16815260200194505050505060405180910390f35b610248610b94565b005b6102e2600480360360e081101561026057600080fd5b81019080803573ffffffffffffffffffffffffffffffffffffffff16906020019092919080359060200190929190803563ffffffff169060200190929190803563ffffffff169060200190929190803563ffffffff169060200190929190803563ffffffff169060200190929190803515159060200190929190505050610ca3565b005b6102ec610e37565b005b6102f6610fa4565b604051808273ffffffffffffffffffffffffffffffffffffffff16815260200191505060405180910390f35b6103746004803603604081101561033857600080fd5b81019080803573ffffffffffffffffffffffffffffffffffffffff169060200190929190803563ffffffff169060200190929190505050610fcd565b604051808981526020018881526020018781526020018681526020018581526020018463ffffffff168152602001831515815260200182151581526020019850505050505050505060405180910390f35b610441600480360360808110156103db57600080fd5b81019080803573ffffffffffffffffffffffffffffffffffffffff16906020019092919080359060200190929190803563ffffffff169060200190929190803573ffffffffffffffffffffffffffffffffffffffff1690602001909291905050506110ae565b005b6104856004803603602081101561045957600080fd5b81019080803573ffffffffffffffffffffffffffffffffffffffff16906020019092919050505061116f565b6040518085151581526020018463ffffffff1681526020018363ffffffff1681526020018263ffffffff16815260200194505050505060405180910390f35b610542600480360360a08110156104da57600080fd5b81019080803573ffffffffffffffffffffffffffffffffffffffff169060200190929190803563ffffffff169060200190929190803563ffffffff169060200190929190803563ffffffff169060200190929190803515159060200190929190505050611219565b005b61054c6112dc565b604051808263ffffffff16815260200191505060405180910390f35b6105aa6004803603602081101561057e57600080fd5b81019080803573ffffffffffffffffffffffffffffffffffffffff1690602001909291905050506112f6565b005b610634600480360360c08110156105c257600080fd5b81019080803573ffffffffffffffffffffffffffffffffffffffff16906020019092919080359060200190929190803563ffffffff169060200190929190803563ffffffff169060200190929190803563ffffffff16906020019092919080351515906020019092919050505061148c565b005b6106786004803603602081101561064c57600080fd5b81019080803573ffffffffffffffffffffffffffffffffffffffff169060200190929190505050611559565b005b6106bc6004803603602081101561069057600080fd5b81019080803573ffffffffffffffffffffffffffffffffffffffff16906020019092919050505061174b565b005b6106c6611845565b604051808273ffffffffffffffffffffffffffffffffffffffff16815260200191505060405180910390f35b6106fa61186f565b73ffffffffffffffffffffffffffffffffffffffff16610718610fa4565b73ffffffffffffffffffffffffffffffffffffffff16146107a1576040517f08c379a00000000000000000000000000000000000000000000000000000000081526004018080602001828103825260208152602001807f4f776e61626c653a2063616c6c6572206973206e6f7420746865206f776e657281525060200191505060405180910390fd5b6107ab8282611877565b5050565b6107b761186f565b73ffffffffffffffffffffffffffffffffffffffff166107d5610fa4565b73ffffffffffffffffffffffffffffffffffffffff161461085e576040517f08c379a00000000000000000000000000000000000000000000000000000000081526004018080602001828103825260208152602001807f4f776e61626c653a2063616c6c6572206973206e6f7420746865206f776e657281525060200191505060405180910390fd5b6000600260008373ffffffffffffffffffffffffffffffffffffffff1673ffffffffffffffffffffffffffffffffffffffff16815260200190815260200160002090506000600160008360020160009054906101000a900473ffffffffffffffffffffffffffffffffffffffff1673ffffffffffffffffffffffffffffffffffffffff1673ffffffffffffffffffffffffffffffffffffffff16815260200190815260200160002090508160000160009054906101000a900460ff1661098c576040517f08c379a000000000000000000000000000000000000000000000000000000000815260040180806020018281038252600f8152602001807f6e6f20616374697665206772616e74000000000000000000000000000000000081525060200191505060405180910390fd5b8060000160009054906101000a900460ff16610a10576040517f08c379a000000000000000000000000000000000000000000000000000000000815260040180806020018281038252600b8152602001807f69727265766f6361626c6500000000000000000000000000000000000000000081525060200191505060405180910390fd5b6001600260008573ffffffffffffffffffffffffffffffffffffffff1673ffffffffffffffffffffffffffffffffffffffff16815260200190815260200160002060000160016101000a81548160ff0219169083151502179055506000600260008573ffffffffffffffffffffffffffffffffffffffff1673ffffffffffffffffffffffffffffffffffffffff16815260200190815260200160002060000160006101000a81548160ff0219169083151502179055508273ffffffffffffffffffffffffffffffffffffffff167fbadc5b2ca6241beb42d4f1c0481f982a91e7aceaca195b8825f6187ad50018e560405160405180910390a2505050565b6000806000806000600260008773ffffffffffffffffffffffffffffffffffffffff1673ffffffffffffffffffffffffffffffffffffffff1681526020019081526020016000209050610b848160020160009054906101000a900473ffffffffffffffffffffffffffffffffffffffff1661116f565b9450945094509450509193509193565b610b9c61186f565b73ffffffffffffffffffffffffffffffffffffffff16610bba610fa4565b73ffffffffffffffffffffffffffffffffffffffff1614610c43576040517f08c379a00000000000000000000000000000000000000000000000000000000081526004018080602001828103825260208152602001807f4f776e61626c653a2063616c6c6572206973206e6f7420746865206f776e657281525060200191505060405180910390fd5b60005b600380549050811015610ca057610c9360038281548110610c6357fe5b9060005260206000200160009054906101000a900473ffffffffffffffffffffffffffffffffffffffff16611ae6565b8080600101915050610c46565b50565b610cab61186f565b73ffffffffffffffffffffffffffffffffffffffff16610cc9610fa4565b73ffffffffffffffffffffffffffffffffffffffff1614610d52576040517f08c379a00000000000000000000000000000000000000000000000000000000081526004018080602001828103825260208152602001807f4f776e61626c653a2063616c6c6572206973206e6f7420746865206f776e657281525060200191505060405180910390fd5b600260008873ffffffffffffffffffffffffffffffffffffffff1673ffffffffffffffffffffffffffffffffffffffff16815260200190815260200160002060000160009054906101000a900460ff1615610e15576040517f08c379a00000000000000000000000000000000000000000000000000000000081526004018080602001828103825260148152602001807f6772616e7420616c72656164792065786973747300000000000000000000000081525060200191505060405180910390fd5b610e228784868585611bf6565b610e2e8787878a611eef565b50505050505050565b610e3f61186f565b73ffffffffffffffffffffffffffffffffffffffff16610e5d610fa4565b73ffffffffffffffffffffffffffffffffffffffff1614610ee6576040517f08c379a00000000000000000000000000000000000000000000000000000000081526004018080602001828103825260208152602001807f4f776e61626c653a2063616c6c6572206973206e6f7420746865206f776e657281525060200191505060405180910390fd5b600073ffffffffffffffffffffffffffffffffffffffff1660008054906101000a900473ffffffffffffffffffffffffffffffffffffffff1673ffffffffffffffffffffffffffffffffffffffff167f8be0079c531659141344cd1fd0a4f28419497f9722a3daafe3b4186f6b6457e060405160405180910390a360008060006101000a81548173ffffffffffffffffffffffffffffffffffffffff021916908373ffffffffffffffffffffffffffffffffffffffff160217905550565b60008060009054906101000a900473ffffffffffffffffffffffffffffffffffffffff16905090565b6000806000806000806000806000600260008c73ffffffffffffffffffffffffffffffffffffffff1673ffffffffffffffffffffffffffffffffffffffff168152602001908152602001600020905060006110288c8c6122cb565b905061104181836001015461252c90919063ffffffff16565b81836001015461105185856125af565b85600301548660000160029054906101000a900463ffffffff168760000160009054906101000a900460ff168860000160019054906101000a900460ff169950995099509950995099509950995050509295985092959890939650565b6110b661186f565b73ffffffffffffffffffffffffffffffffffffffff166110d4610fa4565b73ffffffffffffffffffffffffffffffffffffffff161461115d576040517f08c379a00000000000000000000000000000000000000000000000000000000081526004018080602001828103825260208152602001807f4f776e61626c653a2063616c6c6572206973206e6f7420746865206f776e657281525060200191505060405180910390fd5b61116984848484611eef565b50505050565b6000806000806000600160008773ffffffffffffffffffffffffffffffffffffffff1673ffffffffffffffffffffffffffffffffffffffff16815260200190815260200160002090508060000160009054906101000a900460ff168160000160059054906101000a900463ffffffff168260000160019054906101000a900463ffffffff168360000160099054906101000a900463ffffffff169450945094509450509193509193565b61122161186f565b73ffffffffffffffffffffffffffffffffffffffff1661123f610fa4565b73ffffffffffffffffffffffffffffffffffffffff16146112c8576040517f08c379a00000000000000000000000000000000000000000000000000000000081526004018080602001828103825260208152602001807f4f776e61626c653a2063616c6c6572206973206e6f7420746865206f776e657281525060200191505060405180910390fd5b6112d58585858585611bf6565b5050505050565b60006201518063ffffffff1642816112f057fe5b04905090565b6112fe61186f565b73ffffffffffffffffffffffffffffffffffffffff1661131c610fa4565b73ffffffffffffffffffffffffffffffffffffffff16146113a5576040517f08c379a00000000000000000000000000000000000000000000000000000000081526004018080602001828103825260208152602001807f4f776e61626c653a2063616c6c6572206973206e6f7420746865206f776e657281525060200191505060405180910390fd5b611473816113b1611845565b73ffffffffffffffffffffffffffffffffffffffff166370a08231306040518263ffffffff167c0100000000000000000000000000000000000000000000000000000000028152600401808273ffffffffffffffffffffffffffffffffffffffff16815260200191505060206040518083038186803b15801561143357600080fd5b505afa158015611447573d6000803e3d6000fd5b505050506040513d602081101561145d57600080fd5b8101908080519060200190929190505050611877565b8073ffffffffffffffffffffffffffffffffffffffff16ff5b61149461186f565b73ffffffffffffffffffffffffffffffffffffffff166114b2610fa4565b73ffffffffffffffffffffffffffffffffffffffff161461153b576040517f08c379a00000000000000000000000000000000000000000000000000000000081526004018080602001828103825260208152602001807f4f776e61626c653a2063616c6c6572206973206e6f7420746865206f776e657281525060200191505060405180910390fd5b61155186866115486112dc565b87878787610ca3565b505050505050565b61156161186f565b73ffffffffffffffffffffffffffffffffffffffff1661157f610fa4565b73ffffffffffffffffffffffffffffffffffffffff1614611608576040517f08c379a00000000000000000000000000000000000000000000000000000000081526004018080602001828103825260208152602001807f4f776e61626c653a2063616c6c6572206973206e6f7420746865206f776e657281525060200191505060405180910390fd5b600073ffffffffffffffffffffffffffffffffffffffff168173ffffffffffffffffffffffffffffffffffffffff16141561168e576040517f08c379a0000000000000000000000000000000000000000000000000000000008152600401808060200182810382526026815260200180612bfd6026913960400191505060405180910390fd5b8073ffffffffffffffffffffffffffffffffffffffff1660008054906101000a900473ffffffffffffffffffffffffffffffffffffffff1673ffffffffffffffffffffffffffffffffffffffff167f8be0079c531659141344cd1fd0a4f28419497f9722a3daafe3b4186f6b6457e060405160405180910390a3806000806101000a81548173ffffffffffffffffffffffffffffffffffffffff021916908373ffffffffffffffffffffffffffffffffffffffff16021790555050565b80611754610fa4565b73ffffffffffffffffffffffffffffffffffffffff1661177261186f565b73ffffffffffffffffffffffffffffffffffffffff1614806117c657508073ffffffffffffffffffffffffffffffffffffffff166117ae61186f565b73ffffffffffffffffffffffffffffffffffffffff16145b611838576040517f08c379a000000000000000000000000000000000000000000000000000000000815260040180806020018281038252600f8152602001807f6f6e6c794f776e65724f7253656c66000000000000000000000000000000000081525060200191505060405180910390fd5b61184182611ae6565b5050565b6000600460009054906101000a900473ffffffffffffffffffffffffffffffffffffffff16905090565b600033905090565b600081116118ed576040517f08c379a00000000000000000000000000000000000000000000000000000000081526004018080602001828103825260128152602001807f616d6f756e74206d757374206265203e2030000000000000000000000000000081525060200191505060405180910390fd5b6118f5611845565b73ffffffffffffffffffffffffffffffffffffffff166370a08231306040518263ffffffff167c0100000000000000000000000000000000000000000000000000000000028152600401808273ffffffffffffffffffffffffffffffffffffffff16815260200191505060206040518083038186803b15801561197757600080fd5b505afa15801561198b573d6000803e3d6000fd5b505050506040513d60208110156119a157600080fd5b8101908080519060200190929190505050811115611a0a576040517f08c379a0000000000000000000000000000000000000000000000000000000008152600401808060200182810382526021815260200180612c676021913960400191505060405180910390fd5b611a12611845565b73ffffffffffffffffffffffffffffffffffffffff1663a9059cbb83836040518363ffffffff167c0100000000000000000000000000000000000000000000000000000000028152600401808373ffffffffffffffffffffffffffffffffffffffff16815260200182815260200192505050602060405180830381600087803b158015611a9e57600080fd5b505af1158015611ab2573d6000803e3d6000fd5b505050506040513d6020811015611ac857600080fd5b8101908080519060200190929190505050611ae257600080fd5b5050565b6000611af3826000612682565b90506000811115611bf257611b0882826126e2565b611b5d81600260008573ffffffffffffffffffffffffffffffffffffffff1673ffffffffffffffffffffffffffffffffffffffff16815260200190815260200160002060030154612a4090919063ffffffff16565b600260008473ffffffffffffffffffffffffffffffffffffffff1673ffffffffffffffffffffffffffffffffffffffff168152602001908152602001600020600301819055508173ffffffffffffffffffffffffffffffffffffffff167f5952e800de5564aff4cc315e219327cf6d706cbba481d1613c32f4b1aa17dcdd826040518082815260200191505060405180910390a25b5050565b60008363ffffffff16118015611c2b57506064620592bb63ffffffff1681611c1a57fe5b0463ffffffff168363ffffffff1611155b8015611c4257508263ffffffff168463ffffffff16105b8015611c55575060018263ffffffff1610155b611cc7576040517f08c379a00000000000000000000000000000000000000000000000000000000081526004018080602001828103825260188152602001807f696e76616c69642076657374696e67207363686564756c65000000000000000081525060200191505060405180910390fd5b60008263ffffffff168463ffffffff1681611cde57fe5b0663ffffffff16148015611d0d575060008263ffffffff168563ffffffff1681611d0457fe5b0663ffffffff16145b611d62576040517f08c379a0000000000000000000000000000000000000000000000000000000008152600401808060200182810382526023815260200180612c446023913960400191505060405180910390fd5b604051806080016040528082151581526020018563ffffffff1681526020018463ffffffff1681526020018363ffffffff16815250600160008773ffffffffffffffffffffffffffffffffffffffff1673ffffffffffffffffffffffffffffffffffffffff16815260200190815260200160002060008201518160000160006101000a81548160ff02191690831515021790555060208201518160000160016101000a81548163ffffffff021916908363ffffffff16021790555060408201518160000160056101000a81548163ffffffff021916908363ffffffff16021790555060608201518160000160096101000a81548163ffffffff021916908363ffffffff1602179055509050508473ffffffffffffffffffffffffffffffffffffffff167fb84219eaee5910cc5311a393fbd4287b14bc791973b97f64d4b61b6d8554adc785858585604051808563ffffffff1681526020018463ffffffff1681526020018363ffffffff168152602001821515815260200194505050505060405180910390a25050505050565b600260008573ffffffffffffffffffffffffffffffffffffffff1673ffffffffffffffffffffffffffffffffffffffff16815260200190815260200160002060000160009054906101000a900460ff1615611fb2576040517f08c379a00000000000000000000000000000000000000000000000000000000081526004018080602001828103825260148152602001807f6772616e7420616c72656164792065786973747300000000000000000000000081525060200191505060405180910390fd5b600083118015611fea57506201518063ffffffff1663386d438063ffffffff1681611fd957fe5b0463ffffffff168263ffffffff1610155b80156120225750620592bb6201518063ffffffff1663386d438063ffffffff168161201157fe5b040163ffffffff168263ffffffff16105b612094576040517f08c379a00000000000000000000000000000000000000000000000000000000081526004018080602001828103825260168152602001807f696e76616c69642076657374696e6720706172616d730000000000000000000081525060200191505060405180910390fd5b6040518060c001604052806001151581526020016000151581526020018363ffffffff1681526020018481526020018273ffffffffffffffffffffffffffffffffffffffff1681526020016000815250600260008673ffffffffffffffffffffffffffffffffffffffff1673ffffffffffffffffffffffffffffffffffffffff16815260200190815260200160002060008201518160000160006101000a81548160ff02191690831515021790555060208201518160000160016101000a81548160ff02191690831515021790555060408201518160000160026101000a81548163ffffffff021916908363ffffffff1602179055506060820151816001015560808201518160020160006101000a81548173ffffffffffffffffffffffffffffffffffffffff021916908373ffffffffffffffffffffffffffffffffffffffff16021790555060a082015181600301559050506003849080600181540180825580915050600190039060005260206000200160009091909190916101000a81548173ffffffffffffffffffffffffffffffffffffffff021916908373ffffffffffffffffffffffffffffffffffffffff1602179055508373ffffffffffffffffffffffffffffffffffffffff167f4c8446f7c7d1fef2c389127c7f901f8b56c628cea596ad7ce805fa5f89097ccb848484604051808481526020018363ffffffff1681526020018273ffffffffffffffffffffffffffffffffffffffff168152602001935050505060405180910390a250505050565b600080600260008573ffffffffffffffffffffffffffffffffffffffff1673ffffffffffffffffffffffffffffffffffffffff16815260200190815260200160002090506000600160008360020160009054906101000a900473ffffffffffffffffffffffffffffffffffffffff1673ffffffffffffffffffffffffffffffffffffffff1673ffffffffffffffffffffffffffffffffffffffff1681526020019081526020016000209050600061238185612ac8565b90508260000160009054906101000a900460ff1615806123d657508160000160019054906101000a900463ffffffff168360000160029054906101000a900463ffffffff160163ffffffff168163ffffffff16105b156123ea5782600101549350505050612526565b8160000160059054906101000a900463ffffffff168360000160029054906101000a900463ffffffff160163ffffffff168163ffffffff16106124335760009350505050612526565b60008360000160029054906101000a900463ffffffff168203905060008360000160099054906101000a900463ffffffff168460000160099054906101000a900463ffffffff1663ffffffff168363ffffffff168161248e57fe5b0402905060006124dd8560000160059054906101000a900463ffffffff1663ffffffff166124cf8463ffffffff168960010154612aed90919063ffffffff16565b612b7390919063ffffffff16565b905060006124f882886001015461252c90919063ffffffff16565b905086600101548111158015612512575086600101548211155b61251b57600080fd5b809750505050505050505b92915050565b6000828211156125a4576040517f08c379a000000000000000000000000000000000000000000000000000000000815260040180806020018281038252601e8152602001807f536166654d6174683a207375627472616374696f6e206f766572666c6f77000081525060200191505060405180910390fd5b818303905092915050565b6000806125c983856001015461252c90919063ffffffff16565b90508360030154811015612608576000811480156125f557508360000160019054906101000a900460ff165b6125fe57600080fd5b600091505061267c565b600061262185600301548361252c90919063ffffffff16565b9050846001015481111580156126515750846001015461264e828760030154612a4090919063ffffffff16565b11155b801561265d5750818111155b801561266d575084600101548211155b61267657600080fd5b80925050505b92915050565b600080600260008573ffffffffffffffffffffffffffffffffffffffff1673ffffffffffffffffffffffffffffffffffffffff16815260200190815260200160002090506126d9816126d486866122cb565b6125af565b91505092915050565b60008111612758576040517f08c379a00000000000000000000000000000000000000000000000000000000081526004018080602001828103825260128152602001807f616d6f756e74206d757374206265203e2030000000000000000000000000000081525060200191505060405180910390fd5b612760611845565b73ffffffffffffffffffffffffffffffffffffffff166370a08231306040518263ffffffff167c0100000000000000000000000000000000000000000000000000000000028152600401808273ffffffffffffffffffffffffffffffffffffffff16815260200191505060206040518083038186803b1580156127e257600080fd5b505afa1580156127f6573d6000803e3d6000fd5b505050506040513d602081101561280c57600080fd5b8101908080519060200190929190505050811115612875576040517f08c379a0000000000000000000000000000000000000000000000000000000008152600401808060200182810382526021815260200180612c676021913960400191505060405180910390fd5b600260008373ffffffffffffffffffffffffffffffffffffffff1673ffffffffffffffffffffffffffffffffffffffff1681526020019081526020016000206001015461290d82600260008673ffffffffffffffffffffffffffffffffffffffff1673ffffffffffffffffffffffffffffffffffffffff16815260200190815260200160002060030154612a4090919063ffffffff16565b1115612964576040517f08c379a0000000000000000000000000000000000000000000000000000000008152600401808060200182810382526030815260200180612c886030913960400191505060405180910390fd5b61296c611845565b73ffffffffffffffffffffffffffffffffffffffff1663a9059cbb83836040518363ffffffff167c0100000000000000000000000000000000000000000000000000000000028152600401808373ffffffffffffffffffffffffffffffffffffffff16815260200182815260200192505050602060405180830381600087803b1580156129f857600080fd5b505af1158015612a0c573d6000803e3d6000fd5b505050506040513d6020811015612a2257600080fd5b8101908080519060200190929190505050612a3c57600080fd5b5050565b600080828401905083811015612abe576040517f08c379a000000000000000000000000000000000000000000000000000000000815260040180806020018281038252601b8152602001807f536166654d6174683a206164646974696f6e206f766572666c6f77000000000081525060200191505060405180910390fd5b8091505092915050565b6000808263ffffffff1614612add5781612ae6565b612ae56112dc565b5b9050919050565b600080831415612b005760009050612b6d565b6000828402905082848281612b1157fe5b0414612b68576040517f08c379a0000000000000000000000000000000000000000000000000000000008152600401808060200182810382526021815260200180612c236021913960400191505060405180910390fd5b809150505b92915050565b6000808211612bea576040517f08c379a000000000000000000000000000000000000000000000000000000000815260040180806020018281038252601a8152602001807f536166654d6174683a206469766973696f6e206279207a65726f00000000000081525060200191505060405180910390fd5b818381612bf357fe5b0490509291505056fe4f776e61626c653a206e6577206f776e657220697320746865207a65726f2061646472657373536166654d6174683a206d756c7469706c69636174696f6e206f766572666c6f77696e76616c696420636c6966662f6475726174696f6e20666f7220696e74657276616c616d6f756e74206d757374206265203c3d2063757272656e742062616c616e63656e657720636c61696d656420616d6f756e74206d757374206265203c3d20746f74616c206772616e7420616d6f756e74a2646970667358221220d7329e388f2fbc5f3f0bd9bc1362eb9314f257a5be97bba2a8fd8639954d89fe64736f6c634300060c0033",
  "immutableReferences": {},
  "source": "// SPDX-License-Identifier: MIT\n\npragma solidity 0.6.12;\n\nimport \"@openzeppelin/contracts/access/Ownable.sol\";\nimport \"@openzeppelin/contracts/utils/Context.sol\";\nimport \"@openzeppelin/contracts/token/ERC20/IERC20.sol\";\nimport \"@openzeppelin/contracts/math/SafeMath.sol\";\nimport \"./TokenVestingInterface.sol\";\n\n/**\n * @title Contract for token vesting schedules\n *\n * @dev Contract which gives the ability to act as a pool of funds for allocating\n *   tokens to any number of other addresses. Token grants support the ability to vest over time in\n *   accordance a predefined vesting schedule. A given wallet can receive no more than one token grant.\n */\ncontract TokenVesting is TokenVestingInterface, Context, Ownable {\n  using SafeMath for uint256;\n\n  // Date-related constants for sanity-checking dates to reject obvious erroneous inputs\n  // and conversions from seconds to days and years that are more or less leap year-aware.\n  uint32 private constant _THOUSAND_YEARS_DAYS = 365243; /* See https://www.timeanddate.com/date/durationresult.html?m1=1&d1=1&y1=2000&m2=1&d2=1&y2=3000 */\n  uint32 private constant _TEN_YEARS_DAYS = _THOUSAND_YEARS_DAYS / 100; /* Includes leap years (though it doesn't really matter) */\n  uint32 private constant _SECONDS_PER_DAY = 24 * 60 * 60; /* 86400 seconds in a day */\n  uint32 private constant _JAN_1_2000_SECONDS = 946684800; /* Saturday, January 1, 2000 0:00:00 (GMT) (see https://www.epochconverter.com/) */\n  uint32 private constant _JAN_1_2000_DAYS =\n    _JAN_1_2000_SECONDS / _SECONDS_PER_DAY;\n  uint32 private constant _JAN_1_3000_DAYS =\n    _JAN_1_2000_DAYS + _THOUSAND_YEARS_DAYS;\n\n  modifier onlyOwnerOrSelf(address account) {\n    require(\n      _msgSender() == owner() || _msgSender() == account,\n      \"onlyOwnerOrSelf\"\n    );\n    _;\n  }\n\n  mapping(address => vestingSchedule) private _vestingSchedules;\n  mapping(address => tokenGrant) private _tokenGrants;\n  address[] private _allBeneficiaries;\n  IERC20 private _token;\n\n  constructor(IERC20 token_) public {\n    require(address(token_) != address(0), \"token must be non-zero address\");\n    _token = token_;\n  }\n\n  function token() public view override returns (IERC20) {\n    return _token;\n  }\n\n  function kill(address payable beneficiary) external override onlyOwner {\n    _withdrawTokens(beneficiary, token().balanceOf(address(this)));\n    selfdestruct(beneficiary);\n  }\n\n  function withdrawTokens(address beneficiary, uint256 amount)\n    external\n    override\n    onlyOwner\n  {\n    _withdrawTokens(beneficiary, amount);\n  }\n\n  function _withdrawTokens(address beneficiary, uint256 amount) internal {\n    require(amount > 0, \"amount must be > 0\");\n    require(\n      amount <= token().balanceOf(address(this)),\n      \"amount must be <= current balance\"\n    );\n\n    require(token().transfer(beneficiary, amount));\n  }\n\n  // =========================================================================\n  // === Methods for claiming tokens.\n  // =========================================================================\n\n  function claimVestingTokens(address beneficiary)\n    external\n    override\n    onlyOwnerOrSelf(beneficiary)\n  {\n    _claimVestingTokens(beneficiary);\n  }\n\n  function claimVestingTokensForAll() external override onlyOwner {\n    for (uint256 i = 0; i < _allBeneficiaries.length; i++) {\n      _claimVestingTokens(_allBeneficiaries[i]);\n    }\n  }\n\n  function _claimVestingTokens(address beneficiary) internal {\n    uint256 amount = _getAvailableAmount(beneficiary, 0);\n    if (amount > 0) {\n      _deliverTokens(beneficiary, amount);\n      _tokenGrants[beneficiary].claimedAmount = _tokenGrants[beneficiary]\n        .claimedAmount\n        .add(amount);\n      emit VestingTokensClaimed(beneficiary, amount);\n    }\n  }\n\n  function _deliverTokens(address beneficiary, uint256 amount) internal {\n    require(amount > 0, \"amount must be > 0\");\n    require(\n      amount <= token().balanceOf(address(this)),\n      \"amount must be <= current balance\"\n    );\n    require(\n      _tokenGrants[beneficiary].claimedAmount.add(amount) <=\n        _tokenGrants[beneficiary].amount,\n      \"new claimed amount must be <= total grant amount\"\n    );\n\n    require(token().transfer(beneficiary, amount));\n  }\n\n  // =========================================================================\n  // === Methods for administratively creating a vesting schedule for an account.\n  // =========================================================================\n\n  /**\n   * @dev This one-time operation permanently establishes a vesting schedule in the given account.\n   *\n   * @param cliffDuration = Duration of the cliff, with respect to the grant start day, in days.\n   * @param duration = Duration of the vesting schedule, with respect to the grant start day, in days.\n   * @param interval = Number of days between vesting increases.\n   * @param isRevocable = True if the grant can be revoked (i.e. was a gift) or false if it cannot\n   *   be revoked (i.e. tokens were purchased).\n   */\n  function setVestingSchedule(\n    address vestingLocation,\n    uint32 cliffDuration,\n    uint32 duration,\n    uint32 interval,\n    bool isRevocable\n  ) external override onlyOwner {\n    _setVestingSchedule(\n      vestingLocation,\n      cliffDuration,\n      duration,\n      interval,\n      isRevocable\n    );\n  }\n\n  function _setVestingSchedule(\n    address vestingLocation,\n    uint32 cliffDuration,\n    uint32 duration,\n    uint32 interval,\n    bool isRevocable\n  ) internal {\n    // Check for a valid vesting schedule given (disallow absurd values to reject likely bad input).\n    require(\n      duration > 0 &&\n        duration <= _TEN_YEARS_DAYS &&\n        cliffDuration < duration &&\n        interval >= 1,\n      \"invalid vesting schedule\"\n    );\n\n    // Make sure the duration values are in harmony with interval (both should be an exact multiple of interval).\n    require(\n      duration % interval == 0 && cliffDuration % interval == 0,\n      \"invalid cliff/duration for interval\"\n    );\n\n    // Create and populate a vesting schedule.\n    _vestingSchedules[vestingLocation] = vestingSchedule(\n      isRevocable,\n      cliffDuration,\n      duration,\n      interval\n    );\n\n    // Emit the event.\n    emit VestingScheduleCreated(\n      vestingLocation,\n      cliffDuration,\n      duration,\n      interval,\n      isRevocable\n    );\n  }\n\n  // =========================================================================\n  // === Token grants (general-purpose)\n  // === Methods to be used for administratively creating one-off token grants with vesting schedules.\n  // =========================================================================\n\n  /**\n   * @dev Grants tokens to an account.\n   *\n   * @param beneficiary = Address to which tokens will be granted.\n   * @param vestingAmount = The number of tokens subject to vesting.\n   * @param startDay = Start day of the grant's vesting schedule, in days since the UNIX epoch\n   *   (start of day). The startDay may be given as a date in the future or in the past, going as far\n   *   back as year 2000.\n   * @param vestingLocation = Account where the vesting schedule is held (must already exist).\n   */\n  function _addGrant(\n    address beneficiary,\n    uint256 vestingAmount,\n    uint32 startDay,\n    address vestingLocation\n  ) internal {\n    // Make sure no prior grant is in effect.\n    require(!_tokenGrants[beneficiary].isActive, \"grant already exists\");\n\n    // Check for valid vestingAmount\n    require(\n      vestingAmount > 0 &&\n        startDay >= _JAN_1_2000_DAYS &&\n        startDay < _JAN_1_3000_DAYS,\n      \"invalid vesting params\"\n    );\n\n    // Create and populate a token grant, referencing vesting schedule.\n    _tokenGrants[beneficiary] = tokenGrant(\n      true, // isActive\n      false, // wasRevoked\n      startDay,\n      vestingAmount,\n      vestingLocation, // The wallet address where the vesting schedule is kept.\n      0 // claimedAmount\n    );\n    _allBeneficiaries.push(beneficiary);\n\n    // Emit the event.\n    emit VestingTokensGranted(\n      beneficiary,\n      vestingAmount,\n      startDay,\n      vestingLocation\n    );\n  }\n\n  /**\n   * @dev Grants tokens to an address, including a portion that will vest over time\n   * according to a set vesting schedule. The overall duration and cliff duration of the grant must\n   * be an even multiple of the vesting interval.\n   *\n   * @param beneficiary = Address to which tokens will be granted.\n   * @param vestingAmount = The number of tokens subject to vesting.\n   * @param startDay = Start day of the grant's vesting schedule, in days since the UNIX epoch\n   *   (start of day). The startDay may be given as a date in the future or in the past, going as far\n   *   back as year 2000.\n   * @param duration = Duration of the vesting schedule, with respect to the grant start day, in days.\n   * @param cliffDuration = Duration of the cliff, with respect to the grant start day, in days.\n   * @param interval = Number of days between vesting increases.\n   * @param isRevocable = True if the grant can be revoked (i.e. was a gift) or false if it cannot\n   *   be revoked (i.e. tokens were purchased).\n   */\n  function addGrant(\n    address beneficiary,\n    uint256 vestingAmount,\n    uint32 startDay,\n    uint32 duration,\n    uint32 cliffDuration,\n    uint32 interval,\n    bool isRevocable\n  ) public override onlyOwner {\n    // Make sure no prior vesting schedule has been set.\n    require(!_tokenGrants[beneficiary].isActive, \"grant already exists\");\n\n    // The vesting schedule is unique to this wallet and so will be stored here,\n    _setVestingSchedule(\n      beneficiary,\n      cliffDuration,\n      duration,\n      interval,\n      isRevocable\n    );\n\n    // Issue tokens to the beneficiary, using beneficiary's own vesting schedule.\n    _addGrant(beneficiary, vestingAmount, startDay, beneficiary);\n  }\n\n  function addGrantWithScheduleAt(\n    address beneficiary,\n    uint256 vestingAmount,\n    uint32 startDay,\n    address vestingLocation\n  ) external override onlyOwner {\n    // Issue tokens to the beneficiary, using custom vestingLocation.\n    _addGrant(beneficiary, vestingAmount, startDay, vestingLocation);\n  }\n\n  function addGrantFromToday(\n    address beneficiary,\n    uint256 vestingAmount,\n    uint32 duration,\n    uint32 cliffDuration,\n    uint32 interval,\n    bool isRevocable\n  ) external override onlyOwner {\n    addGrant(\n      beneficiary,\n      vestingAmount,\n      today(),\n      duration,\n      cliffDuration,\n      interval,\n      isRevocable\n    );\n  }\n\n  // =========================================================================\n  // === Check vesting.\n  // =========================================================================\n  function today() public view virtual override returns (uint32 dayNumber) {\n    return uint32(block.timestamp / _SECONDS_PER_DAY);\n  }\n\n  function _effectiveDay(uint32 onDayOrToday)\n    internal\n    view\n    returns (uint32 dayNumber)\n  {\n    return onDayOrToday == 0 ? today() : onDayOrToday;\n  }\n\n  /**\n   * @dev Determines the amount of tokens that have not vested in the given account.\n   *\n   * The math is: not vested amount = vesting amount * (end date - on date)/(end date - start date)\n   *\n   * @param grantHolder = The account to check.\n   * @param onDayOrToday = The day to check for, in days since the UNIX epoch. Can pass\n   *   the special value 0 to indicate today.\n   */\n  function _getNotVestedAmount(address grantHolder, uint32 onDayOrToday)\n    internal\n    view\n    returns (uint256 amountNotVested)\n  {\n    tokenGrant storage grant = _tokenGrants[grantHolder];\n    vestingSchedule storage vesting = _vestingSchedules[grant.vestingLocation];\n    uint32 onDay = _effectiveDay(onDayOrToday);\n\n    // If there's no schedule, or before the vesting cliff, then the full amount is not vested.\n    if (!grant.isActive || onDay < grant.startDay + vesting.cliffDuration) {\n      // None are vested (all are not vested)\n      return grant.amount;\n    }\n    // If after end of vesting, then the not vested amount is zero (all are vested).\n    else if (onDay >= grant.startDay + vesting.duration) {\n      // All are vested (none are not vested)\n      return uint256(0);\n    }\n    // Otherwise a fractional amount is vested.\n    else {\n      // Compute the exact number of days vested.\n      uint32 daysVested = onDay - grant.startDay;\n      // Adjust result rounding down to take into consideration the interval.\n      uint32 effectiveDaysVested = (daysVested / vesting.interval) *\n        vesting.interval;\n\n      // Compute the fraction vested from schedule using 224.32 fixed point math for date range ratio.\n      // Note: This is safe in 256-bit math because max value of X billion tokens = X*10^27 wei, and\n      // typical token amounts can fit into 90 bits. Scaling using a 32 bits value results in only 125\n      // bits before reducing back to 90 bits by dividing. There is plenty of room left, even for token\n      // amounts many orders of magnitude greater than mere billions.\n      uint256 vested = grant.amount.mul(effectiveDaysVested).div(\n        vesting.duration\n      );\n      uint256 result = grant.amount.sub(vested);\n      require(result <= grant.amount && vested <= grant.amount);\n\n      return result;\n    }\n  }\n\n  /**\n   * @dev Computes the amount of funds in the given account which are available for use as of\n   * the given day, i.e. the claimable amount.\n   *\n   * The math is: available amount = totalGrantAmount - notVestedAmount - claimedAmount.\n   *\n   * @param grantHolder = The account to check.\n   * @param onDay = The day to check for, in days since the UNIX epoch.\n   */\n  function _getAvailableAmount(address grantHolder, uint32 onDay)\n    internal\n    view\n    returns (uint256 amountAvailable)\n  {\n    tokenGrant storage grant = _tokenGrants[grantHolder];\n    return\n      _getAvailableAmountImpl(grant, _getNotVestedAmount(grantHolder, onDay));\n  }\n\n  function _getAvailableAmountImpl(\n    tokenGrant storage grant,\n    uint256 notVastedOnDay\n  ) internal view returns (uint256 amountAvailable) {\n    uint256 vested = grant.amount.sub(notVastedOnDay);\n    if (vested < grant.claimedAmount) {\n      // .sub below will fail, only possible when grant revoked\n      require(vested == 0 && grant.wasRevoked);\n      return 0;\n    }\n\n    uint256 result = vested.sub(grant.claimedAmount);\n    require(\n      result <= grant.amount &&\n        grant.claimedAmount.add(result) <= grant.amount &&\n        result <= vested &&\n        vested <= grant.amount\n    );\n\n    return result;\n  }\n\n  /**\n   * @dev returns all information about the grant's vesting as of the given day\n   * for the given account. Only callable by the account holder or a contract owner.\n   *\n   * @param grantHolder = The address to do this for.\n   * @param onDayOrToday = The day to check for, in days since the UNIX epoch. Can pass\n   *   the special value 0 to indicate today.\n   * return = A tuple with the following values:\n   *   amountVested = the amount that is already vested\n   *   amountNotVested = the amount that is not yet vested (equal to vestingAmount - vestedAmount)\n   *   amountOfGrant = the total amount of tokens subject to vesting.\n   *   amountAvailable = the amount of funds in the given account which are available for use as of the given day\n   *   amountClaimed = out of amountVested, the amount that has been already transferred to beneficiary\n   *   vestStartDay = starting day of the grant (in days since the UNIX epoch).\n   *   isActive = true if the vesting schedule is currently active.\n   *   wasRevoked = true if the vesting schedule was revoked.\n   */\n  function getGrantInfo(address grantHolder, uint32 onDayOrToday)\n    external\n    view\n    override\n    returns (\n      uint256 amountVested,\n      uint256 amountNotVested,\n      uint256 amountOfGrant,\n      uint256 amountAvailable,\n      uint256 amountClaimed,\n      uint32 vestStartDay,\n      bool isActive,\n      bool wasRevoked\n    )\n  {\n    tokenGrant storage grant = _tokenGrants[grantHolder];\n    uint256 notVestedAmount = _getNotVestedAmount(grantHolder, onDayOrToday);\n\n    return (\n      grant.amount.sub(notVestedAmount),\n      notVestedAmount,\n      grant.amount,\n      _getAvailableAmountImpl(grant, notVestedAmount),\n      grant.claimedAmount,\n      grant.startDay,\n      grant.isActive,\n      grant.wasRevoked\n    );\n  }\n\n  function getScheduleAtInfo(address vestingLocation)\n    public\n    view\n    override\n    returns (\n      bool isRevocable,\n      uint32 vestDuration,\n      uint32 cliffDuration,\n      uint32 vestIntervalDays\n    )\n  {\n    vestingSchedule storage vesting = _vestingSchedules[vestingLocation];\n\n    return (\n      vesting.isRevocable,\n      vesting.duration,\n      vesting.cliffDuration,\n      vesting.interval\n    );\n  }\n\n  function getScheduleInfo(address grantHolder)\n    external\n    view\n    override\n    returns (\n      bool isRevocable,\n      uint32 vestDuration,\n      uint32 cliffDuration,\n      uint32 vestIntervalDays\n    )\n  {\n    tokenGrant storage grant = _tokenGrants[grantHolder];\n    return getScheduleAtInfo(grant.vestingLocation);\n  }\n\n  // =========================================================================\n  // === Grant revocation\n  // =========================================================================\n\n  /**\n   * @dev If the account has a revocable grant, this forces the grant to end immediately.\n   * After this function is called, getGrantInfo will return incomplete data\n   * and there will be no possibility to claim non-claimed tokens\n   *\n   * @param grantHolder = Address to which tokens will be granted.\n   */\n  function revokeGrant(address grantHolder) external override onlyOwner {\n    tokenGrant storage grant = _tokenGrants[grantHolder];\n    vestingSchedule storage vesting = _vestingSchedules[grant.vestingLocation];\n\n    // Make sure a vesting schedule has previously been set.\n    require(grant.isActive, \"no active grant\");\n    // Make sure it's revocable.\n    require(vesting.isRevocable, \"irrevocable\");\n\n    // Kill the grant by updating wasRevoked and isActive.\n    _tokenGrants[grantHolder].wasRevoked = true;\n    _tokenGrants[grantHolder].isActive = false;\n\n    // Emits the GrantRevoked event.\n    emit GrantRevoked(grantHolder);\n  }\n}",
  "sourcePath": "/Users/denizdalkilic/Documents/MarhabaDeFi/mrhb-token/contracts/TokenVesting.sol",
  "compiler": {
    "name": "solc",
    "version": "0.6.12+commit.27d51765.Emscripten.clang"
  },
  "schemaVersion": "3.4.3",
  "updatedAt": "2021-12-08T15:38:57.185Z",
  "devdoc": {
    "details": "Contract which gives the ability to act as a pool of funds for allocating   tokens to any number of other addresses. Token grants support the ability to vest over time in   accordance a predefined vesting schedule. A given wallet can receive no more than one token grant.",
    "kind": "dev",
    "methods": {
      "addGrant(address,uint256,uint32,uint32,uint32,uint32,bool)": {
        "details": "Grants tokens to an address, including a portion that will vest over time according to a set vesting schedule. The overall duration and cliff duration of the grant must be an even multiple of the vesting interval.",
        "params": {
          "beneficiary": "= Address to which tokens will be granted.",
          "cliffDuration": "= Duration of the cliff, with respect to the grant start day, in days.",
          "duration": "= Duration of the vesting schedule, with respect to the grant start day, in days.",
          "interval": "= Number of days between vesting increases.",
          "isRevocable": "= True if the grant can be revoked (i.e. was a gift) or false if it cannot   be revoked (i.e. tokens were purchased).",
          "startDay": "= Start day of the grant's vesting schedule, in days since the UNIX epoch   (start of day). The startDay may be given as a date in the future or in the past, going as far   back as year 2000.",
          "vestingAmount": "= The number of tokens subject to vesting."
        }
      },
      "getGrantInfo(address,uint32)": {
        "details": "returns all information about the grant's vesting as of the given day for the given account. Only callable by the account holder or a contract owner.",
        "params": {
          "grantHolder": "= The address to do this for.",
          "onDayOrToday": "= The day to check for, in days since the UNIX epoch. Can pass   the special value 0 to indicate today. return = A tuple with the following values:   amountVested = the amount that is already vested   amountNotVested = the amount that is not yet vested (equal to vestingAmount - vestedAmount)   amountOfGrant = the total amount of tokens subject to vesting.   amountAvailable = the amount of funds in the given account which are available for use as of the given day   amountClaimed = out of amountVested, the amount that has been already transferred to beneficiary   vestStartDay = starting day of the grant (in days since the UNIX epoch).   isActive = true if the vesting schedule is currently active.   wasRevoked = true if the vesting schedule was revoked."
        }
      },
      "owner()": {
        "details": "Returns the address of the current owner."
      },
      "renounceOwnership()": {
        "details": "Leaves the contract without owner. It will not be possible to call `onlyOwner` functions anymore. Can only be called by the current owner. NOTE: Renouncing ownership will leave the contract without an owner, thereby removing any functionality that is only available to the owner."
      },
      "revokeGrant(address)": {
        "details": "If the account has a revocable grant, this forces the grant to end immediately. After this function is called, getGrantInfo will return incomplete data and there will be no possibility to claim non-claimed tokens",
        "params": {
          "grantHolder": "= Address to which tokens will be granted."
        }
      },
      "setVestingSchedule(address,uint32,uint32,uint32,bool)": {
        "details": "This one-time operation permanently establishes a vesting schedule in the given account.",
        "params": {
          "cliffDuration": "= Duration of the cliff, with respect to the grant start day, in days.",
          "duration": "= Duration of the vesting schedule, with respect to the grant start day, in days.",
          "interval": "= Number of days between vesting increases.",
          "isRevocable": "= True if the grant can be revoked (i.e. was a gift) or false if it cannot   be revoked (i.e. tokens were purchased)."
        }
      },
      "transferOwnership(address)": {
        "details": "Transfers ownership of the contract to a new account (`newOwner`). Can only be called by the current owner."
      }
    },
    "title": "Contract for token vesting schedules",
    "version": 1
  },
  "userdoc": {
    "kind": "user",
    "methods": {},
    "version": 1
  }
}