{
  "contractName": "TokenVesting",
  "abi": [
    {
      "inputs": [
        {
          "internalType": "contract IERC20",
          "name": "token_",
          "type": "address"
        }
      ],
      "stateMutability": "nonpayable",
      "type": "constructor"
    },
    {
      "anonymous": false,
      "inputs": [
        {
          "indexed": true,
          "internalType": "address",
          "name": "grantHolder",
          "type": "address"
        }
      ],
      "name": "GrantRevoked",
      "type": "event"
    },
    {
      "anonymous": false,
      "inputs": [
        {
          "indexed": true,
          "internalType": "address",
          "name": "previousOwner",
          "type": "address"
        },
        {
          "indexed": true,
          "internalType": "address",
          "name": "newOwner",
          "type": "address"
        }
      ],
      "name": "OwnershipTransferred",
      "type": "event"
    },
    {
      "anonymous": false,
      "inputs": [
        {
          "indexed": true,
          "internalType": "address",
          "name": "vestingLocation",
          "type": "address"
        },
        {
          "indexed": false,
          "internalType": "uint32",
          "name": "cliffDuration",
          "type": "uint32"
        },
        {
          "indexed": false,
          "internalType": "uint32",
          "name": "duration",
          "type": "uint32"
        },
        {
          "indexed": false,
          "internalType": "uint32",
          "name": "interval",
          "type": "uint32"
        },
        {
          "indexed": false,
          "internalType": "bool",
          "name": "isRevocable",
          "type": "bool"
        }
      ],
      "name": "VestingScheduleCreated",
      "type": "event"
    },
    {
      "anonymous": false,
      "inputs": [
        {
          "indexed": true,
          "internalType": "address",
          "name": "beneficiary",
          "type": "address"
        },
        {
          "indexed": false,
          "internalType": "uint256",
          "name": "amount",
          "type": "uint256"
        }
      ],
      "name": "VestingTokensClaimed",
      "type": "event"
    },
    {
      "anonymous": false,
      "inputs": [
        {
          "indexed": true,
          "internalType": "address",
          "name": "beneficiary",
          "type": "address"
        },
        {
          "indexed": false,
          "internalType": "uint256",
          "name": "vestingAmount",
          "type": "uint256"
        },
        {
          "indexed": false,
          "internalType": "uint32",
          "name": "startDay",
          "type": "uint32"
        },
        {
          "indexed": false,
          "internalType": "address",
          "name": "vestingLocation",
          "type": "address"
        }
      ],
      "name": "VestingTokensGranted",
      "type": "event"
    },
    {
      "inputs": [],
      "name": "owner",
      "outputs": [
        {
          "internalType": "address",
          "name": "",
          "type": "address"
        }
      ],
      "stateMutability": "view",
      "type": "function"
    },
    {
      "inputs": [],
      "name": "renounceOwnership",
      "outputs": [],
      "stateMutability": "nonpayable",
      "type": "function"
    },
    {
      "inputs": [
        {
          "internalType": "address",
          "name": "newOwner",
          "type": "address"
        }
      ],
      "name": "transferOwnership",
      "outputs": [],
      "stateMutability": "nonpayable",
      "type": "function"
    },
    {
      "inputs": [],
      "name": "token",
      "outputs": [
        {
          "internalType": "contract IERC20",
          "name": "",
          "type": "address"
        }
      ],
      "stateMutability": "view",
      "type": "function"
    },
    {
      "inputs": [
        {
          "internalType": "address payable",
          "name": "beneficiary",
          "type": "address"
        }
      ],
      "name": "kill",
      "outputs": [],
      "stateMutability": "nonpayable",
      "type": "function"
    },
    {
      "inputs": [
        {
          "internalType": "address",
          "name": "beneficiary",
          "type": "address"
        },
        {
          "internalType": "uint256",
          "name": "amount",
          "type": "uint256"
        }
      ],
      "name": "withdrawTokens",
      "outputs": [],
      "stateMutability": "nonpayable",
      "type": "function"
    },
    {
      "inputs": [
        {
          "internalType": "address",
          "name": "beneficiary",
          "type": "address"
        }
      ],
      "name": "claimVestingTokens",
      "outputs": [],
      "stateMutability": "nonpayable",
      "type": "function"
    },
    {
      "inputs": [],
      "name": "claimVestingTokensForAll",
      "outputs": [],
      "stateMutability": "nonpayable",
      "type": "function"
    },
    {
      "inputs": [
        {
          "internalType": "address",
          "name": "vestingLocation",
          "type": "address"
        },
        {
          "internalType": "uint32",
          "name": "cliffDuration",
          "type": "uint32"
        },
        {
          "internalType": "uint32",
          "name": "duration",
          "type": "uint32"
        },
        {
          "internalType": "uint32",
          "name": "interval",
          "type": "uint32"
        },
        {
          "internalType": "bool",
          "name": "isRevocable",
          "type": "bool"
        }
      ],
      "name": "setVestingSchedule",
      "outputs": [],
      "stateMutability": "nonpayable",
      "type": "function"
    },
    {
      "inputs": [
        {
          "internalType": "address",
          "name": "beneficiary",
          "type": "address"
        },
        {
          "internalType": "uint256",
          "name": "vestingAmount",
          "type": "uint256"
        },
        {
          "internalType": "uint32",
          "name": "startDay",
          "type": "uint32"
        },
        {
          "internalType": "uint32",
          "name": "duration",
          "type": "uint32"
        },
        {
          "internalType": "uint32",
          "name": "cliffDuration",
          "type": "uint32"
        },
        {
          "internalType": "uint32",
          "name": "interval",
          "type": "uint32"
        },
        {
          "internalType": "bool",
          "name": "isRevocable",
          "type": "bool"
        }
      ],
      "name": "addGrant",
      "outputs": [],
      "stateMutability": "nonpayable",
      "type": "function"
    },
    {
      "inputs": [
        {
          "internalType": "address",
          "name": "beneficiary",
          "type": "address"
        },
        {
          "internalType": "uint256",
          "name": "vestingAmount",
          "type": "uint256"
        },
        {
          "internalType": "uint32",
          "name": "startDay",
          "type": "uint32"
        },
        {
          "internalType": "address",
          "name": "vestingLocation",
          "type": "address"
        }
      ],
      "name": "addGrantWithScheduleAt",
      "outputs": [],
      "stateMutability": "nonpayable",
      "type": "function"
    },
    {
      "inputs": [
        {
          "internalType": "address",
          "name": "beneficiary",
          "type": "address"
        },
        {
          "internalType": "uint256",
          "name": "vestingAmount",
          "type": "uint256"
        },
        {
          "internalType": "uint32",
          "name": "duration",
          "type": "uint32"
        },
        {
          "internalType": "uint32",
          "name": "cliffDuration",
          "type": "uint32"
        },
        {
          "internalType": "uint32",
          "name": "interval",
          "type": "uint32"
        },
        {
          "internalType": "bool",
          "name": "isRevocable",
          "type": "bool"
        }
      ],
      "name": "addGrantFromToday",
      "outputs": [],
      "stateMutability": "nonpayable",
      "type": "function"
    },
    {
      "inputs": [],
      "name": "today",
      "outputs": [
        {
          "internalType": "uint32",
          "name": "dayNumber",
          "type": "uint32"
        }
      ],
      "stateMutability": "view",
      "type": "function"
    },
    {
      "inputs": [
        {
          "internalType": "address",
          "name": "grantHolder",
          "type": "address"
        },
        {
          "internalType": "uint32",
          "name": "onDayOrToday",
          "type": "uint32"
        }
      ],
      "name": "getGrantInfo",
      "outputs": [
        {
          "internalType": "uint256",
          "name": "amountVested",
          "type": "uint256"
        },
        {
          "internalType": "uint256",
          "name": "amountNotVested",
          "type": "uint256"
        },
        {
          "internalType": "uint256",
          "name": "amountOfGrant",
          "type": "uint256"
        },
        {
          "internalType": "uint256",
          "name": "amountAvailable",
          "type": "uint256"
        },
        {
          "internalType": "uint256",
          "name": "amountClaimed",
          "type": "uint256"
        },
        {
          "internalType": "uint32",
          "name": "vestStartDay",
          "type": "uint32"
        },
        {
          "internalType": "bool",
          "name": "isActive",
          "type": "bool"
        },
        {
          "internalType": "bool",
          "name": "wasRevoked",
          "type": "bool"
        }
      ],
      "stateMutability": "view",
      "type": "function"
    },
    {
      "inputs": [
        {
          "internalType": "address",
          "name": "vestingLocation",
          "type": "address"
        }
      ],
      "name": "getScheduleAtInfo",
      "outputs": [
        {
          "internalType": "bool",
          "name": "isRevocable",
          "type": "bool"
        },
        {
          "internalType": "uint32",
          "name": "vestDuration",
          "type": "uint32"
        },
        {
          "internalType": "uint32",
          "name": "cliffDuration",
          "type": "uint32"
        },
        {
          "internalType": "uint32",
          "name": "vestIntervalDays",
          "type": "uint32"
        }
      ],
      "stateMutability": "view",
      "type": "function"
    },
    {
      "inputs": [
        {
          "internalType": "address",
          "name": "grantHolder",
          "type": "address"
        }
      ],
      "name": "getScheduleInfo",
      "outputs": [
        {
          "internalType": "bool",
          "name": "isRevocable",
          "type": "bool"
        },
        {
          "internalType": "uint32",
          "name": "vestDuration",
          "type": "uint32"
        },
        {
          "internalType": "uint32",
          "name": "cliffDuration",
          "type": "uint32"
        },
        {
          "internalType": "uint32",
          "name": "vestIntervalDays",
          "type": "uint32"
        }
      ],
      "stateMutability": "view",
      "type": "function"
    },
    {
      "inputs": [
        {
          "internalType": "address",
          "name": "grantHolder",
          "type": "address"
        }
      ],
      "name": "revokeGrant",
      "outputs": [],
      "stateMutability": "nonpayable",
      "type": "function"
    }
  ],
  "bytecode": "0x608060405234801561001057600080fd5b50604051611cf1380380611cf18339818101604052602081101561003357600080fd5b5051600061003f610109565b600080546001600160a01b0319166001600160a01b0383169081178255604051929350917f8be0079c531659141344cd1fd0a4f28419497f9722a3daafe3b4186f6b6457e0908290a3506001600160a01b0381166100e4576040805162461bcd60e51b815260206004820152601e60248201527f746f6b656e206d757374206265206e6f6e2d7a65726f20616464726573730000604482015290519081900360640190fd5b600480546001600160a01b0319166001600160a01b039290921691909117905561010d565b3390565b611bd58061011c6000396000f3fe608060405234801561001057600080fd5b506004361061010b5760003560e01c8063996a63b9116100a2578063cbf0b0c011610071578063cbf0b0c014610396578063e1af3c05146103bc578063f2fde38b1461040c578063f9214eec14610432578063fc0c546a146104585761010b565b8063996a63b9146102c5578063abd4818414610305578063abe72d3e1461032b578063b74e452b146103755761010b565b80636db656c3116100de5780636db656c3146101c2578063715018a61461021c5780638da5cb5b146102245780638dc651fd146102485761010b565b806306b091f9146101105780631817c5a71461013e57806336ccda4f1461016457806356492406146101ba575b600080fd5b61013c6004803603604081101561012657600080fd5b506001600160a01b038135169060200135610460565b005b61013c6004803603602081101561015457600080fd5b50356001600160a01b03166104d0565b61018a6004803603602081101561017a57600080fd5b50356001600160a01b031661064e565b60408051941515855263ffffffff9384166020860152918316848301529091166060830152519081900360800190f35b61013c610691565b61013c600480360360e08110156101d857600080fd5b506001600160a01b038135169060208101359063ffffffff60408201358116916060810135821691608082013581169160a08101359091169060c001351515610735565b61013c61081e565b61022c6108d7565b604080516001600160a01b039092168252519081900360200190f35b61027a6004803603604081101561025e57600080fd5b5080356001600160a01b0316906020013563ffffffff166108e6565b604080519889526020890197909752878701959095526060870193909352608086019190915263ffffffff1660a0850152151560c0840152151560e083015251908190036101000190f35b61013c600480360360808110156102db57600080fd5b506001600160a01b03813581169160208101359163ffffffff604083013516916060013516610979565b61018a6004803603602081101561031b57600080fd5b50356001600160a01b03166109ed565b61013c600480360360a081101561034157600080fd5b506001600160a01b038135169063ffffffff6020820135811691604081013582169160608201351690608001351515610a37565b61037d610aad565b6040805163ffffffff9092168252519081900360200190f35b61013c600480360360208110156103ac57600080fd5b50356001600160a01b0316610ab6565b61013c600480360360c08110156103d257600080fd5b506001600160a01b038135169060208101359063ffffffff604082013581169160608101358216916080820135169060a001351515610bad565b61013c6004803603602081101561042257600080fd5b50356001600160a01b0316610c2d565b61013c6004803603602081101561044857600080fd5b50356001600160a01b0316610d3c565b61022c610ddd565b610468610dec565b6001600160a01b03166104796108d7565b6001600160a01b0316146104c2576040805162461bcd60e51b81526020600482018190526024820152600080516020611b0c833981519152604482015290519081900360640190fd5b6104cc8282610df0565b5050565b6104d8610dec565b6001600160a01b03166104e96108d7565b6001600160a01b031614610532576040805162461bcd60e51b81526020600482018190526024820152600080516020611b0c833981519152604482015290519081900360640190fd5b6001600160a01b03808216600090815260026020818152604080842092830154909416835260019052919020815460ff166105b4576040805162461bcd60e51b815260206004820152600f60248201527f6e6f20616374697665206772616e740000000000000000000000000000000000604482015290519081900360640190fd5b805460ff166105f8576040805162461bcd60e51b815260206004820152600b60248201526a69727265766f6361626c6560a81b604482015290519081900360640190fd5b6001600160a01b038316600081815260026020526040808220805460ff1961ff001990911661010017169055517fbadc5b2ca6241beb42d4f1c0481f982a91e7aceaca195b8825f6187ad50018e59190a2505050565b6001600160a01b0380821660009081526002602081905260408220908101549192839283928392909161068191166109ed565b9450945094509450509193509193565b610699610dec565b6001600160a01b03166106aa6108d7565b6001600160a01b0316146106f3576040805162461bcd60e51b81526020600482018190526024820152600080516020611b0c833981519152604482015290519081900360640190fd5b60005b6003548110156107325761072a6003828154811061071057fe5b6000918252602090912001546001600160a01b0316610f8b565b6001016106f6565b50565b61073d610dec565b6001600160a01b031661074e6108d7565b6001600160a01b031614610797576040805162461bcd60e51b81526020600482018190526024820152600080516020611b0c833981519152604482015290519081900360640190fd5b6001600160a01b03871660009081526002602052604090205460ff16156107fc576040805162461bcd60e51b81526020600482015260146024820152736772616e7420616c72656164792065786973747360601b604482015290519081900360640190fd5b6108098784868585611029565b6108158787878a6112a9565b50505050505050565b610826610dec565b6001600160a01b03166108376108d7565b6001600160a01b031614610880576040805162461bcd60e51b81526020600482018190526024820152600080516020611b0c833981519152604482015290519081900360640190fd5b600080546040516001600160a01b03909116907f8be0079c531659141344cd1fd0a4f28419497f9722a3daafe3b4186f6b6457e0908390a36000805473ffffffffffffffffffffffffffffffffffffffff19169055565b6000546001600160a01b031690565b6001600160a01b03821660009081526002602052604081208190819081908190819081908190816109178c8c61154d565b600183015490915061092990826116d0565b818360010154610939858561172d565b60038601549554939d50919b50995097509195505063ffffffff62010000820416935060ff80821693506101009091041690509295985092959890939650565b610981610dec565b6001600160a01b03166109926108d7565b6001600160a01b0316146109db576040805162461bcd60e51b81526020600482018190526024820152600080516020611b0c833981519152604482015290519081900360640190fd5b6109e7848484846112a9565b50505050565b6001600160a01b031660009081526001602052604090205460ff81169163ffffffff6501000000000083048116926101008104821692690100000000000000000090910490911690565b610a3f610dec565b6001600160a01b0316610a506108d7565b6001600160a01b031614610a99576040805162461bcd60e51b81526020600482018190526024820152600080516020611b0c833981519152604482015290519081900360640190fd5b610aa68585858585611029565b5050505050565b62015180420490565b610abe610dec565b6001600160a01b0316610acf6108d7565b6001600160a01b031614610b18576040805162461bcd60e51b81526020600482018190526024820152600080516020611b0c833981519152604482015290519081900360640190fd5b610ba181610b24610ddd565b6001600160a01b03166370a08231306040518263ffffffff1660e01b815260040180826001600160a01b0316815260200191505060206040518083038186803b158015610b7057600080fd5b505afa158015610b84573d6000803e3d6000fd5b505050506040513d6020811015610b9a57600080fd5b5051610df0565b806001600160a01b0316ff5b610bb5610dec565b6001600160a01b0316610bc66108d7565b6001600160a01b031614610c0f576040805162461bcd60e51b81526020600482018190526024820152600080516020611b0c833981519152604482015290519081900360640190fd5b610c258686610c1c610aad565b87878787610735565b505050505050565b610c35610dec565b6001600160a01b0316610c466108d7565b6001600160a01b031614610c8f576040805162461bcd60e51b81526020600482018190526024820152600080516020611b0c833981519152604482015290519081900360640190fd5b6001600160a01b038116610cd45760405162461bcd60e51b8152600401808060200182810382526026815260200180611ac56026913960400191505060405180910390fd5b600080546040516001600160a01b03808516939216917f8be0079c531659141344cd1fd0a4f28419497f9722a3daafe3b4186f6b6457e091a36000805473ffffffffffffffffffffffffffffffffffffffff19166001600160a01b0392909216919091179055565b80610d456108d7565b6001600160a01b0316610d56610dec565b6001600160a01b03161480610d835750806001600160a01b0316610d78610dec565b6001600160a01b0316145b610dd4576040805162461bcd60e51b815260206004820152600f60248201527f6f6e6c794f776e65724f7253656c660000000000000000000000000000000000604482015290519081900360640190fd5b6104cc82610f8b565b6004546001600160a01b031690565b3390565b60008111610e3a576040805162461bcd60e51b81526020600482015260126024820152710616d6f756e74206d757374206265203e20360741b604482015290519081900360640190fd5b610e42610ddd565b6001600160a01b03166370a08231306040518263ffffffff1660e01b815260040180826001600160a01b0316815260200191505060206040518083038186803b158015610e8e57600080fd5b505afa158015610ea2573d6000803e3d6000fd5b505050506040513d6020811015610eb857600080fd5b5051811115610ef85760405162461bcd60e51b8152600401808060200182810382526021815260200180611b4f6021913960400191505060405180910390fd5b610f00610ddd565b6001600160a01b031663a9059cbb83836040518363ffffffff1660e01b815260040180836001600160a01b0316815260200182815260200192505050602060405180830381600087803b158015610f5657600080fd5b505af1158015610f6a573d6000803e3d6000fd5b505050506040513d6020811015610f8057600080fd5b50516104cc57600080fd5b6000610f988260006117ea565b905080156104cc57610faa8282611815565b6001600160a01b038216600090815260026020526040902060030154610fd09082611987565b6001600160a01b038316600081815260026020908152604091829020600301939093558051848152905191927f5952e800de5564aff4cc315e219327cf6d706cbba481d1613c32f4b1aa17dcdd92918290030190a25050565b60008363ffffffff161180156110475750610e4463ffffffff841611155b801561105e57508263ffffffff168463ffffffff16105b8015611071575060018263ffffffff1610155b6110c2576040805162461bcd60e51b815260206004820152601860248201527f696e76616c69642076657374696e67207363686564756c650000000000000000604482015290519081900360640190fd5b8163ffffffff168363ffffffff16816110d757fe5b0663ffffffff16600014801561110857508163ffffffff168463ffffffff16816110fd57fe5b0663ffffffff166000145b6111435760405162461bcd60e51b8152600401808060200182810382526023815260200180611b2c6023913960400191505060405180910390fd5b604051806080016040528082151581526020018563ffffffff1681526020018463ffffffff1681526020018363ffffffff1681525060016000876001600160a01b03166001600160a01b0316815260200190815260200160002060008201518160000160006101000a81548160ff02191690831515021790555060208201518160000160016101000a81548163ffffffff021916908363ffffffff16021790555060408201518160000160056101000a81548163ffffffff021916908363ffffffff16021790555060608201518160000160096101000a81548163ffffffff021916908363ffffffff160217905550905050846001600160a01b03167fb84219eaee5910cc5311a393fbd4287b14bc791973b97f64d4b61b6d8554adc785858585604051808563ffffffff1681526020018463ffffffff1681526020018363ffffffff168152602001821515815260200194505050505060405180910390a25050505050565b6001600160a01b03841660009081526002602052604090205460ff161561130e576040805162461bcd60e51b81526020600482015260146024820152736772616e7420616c72656164792065786973747360601b604482015290519081900360640190fd5b6000831180156113265750612acd63ffffffff831610155b801561133a57506205bd8863ffffffff8316105b61138b576040805162461bcd60e51b815260206004820152601660248201527f696e76616c69642076657374696e6720706172616d7300000000000000000000604482015290519081900360640190fd5b6040518060c001604052806001151581526020016000151581526020018363ffffffff168152602001848152602001826001600160a01b03168152602001600081525060026000866001600160a01b03166001600160a01b0316815260200190815260200160002060008201518160000160006101000a81548160ff02191690831515021790555060208201518160000160016101000a81548160ff02191690831515021790555060408201518160000160026101000a81548163ffffffff021916908363ffffffff1602179055506060820151816001015560808201518160020160006101000a8154816001600160a01b0302191690836001600160a01b0316021790555060a082015181600301559050506003849080600181540180825580915050600190039060005260206000200160009091909190916101000a8154816001600160a01b0302191690836001600160a01b03160217905550836001600160a01b03167f4c8446f7c7d1fef2c389127c7f901f8b56c628cea596ad7ce805fa5f89097ccb848484604051808481526020018363ffffffff168152602001826001600160a01b03168152602001935050505060405180910390a250505050565b6001600160a01b0380831660009081526002602081815260408084209283015490941683526001905291812090919082611586856119e8565b835490915060ff1615806115ba57508154835462010000900463ffffffff9081166101009092048116919091018116908216105b156115cc5750506001015490506116ca565b8154835462010000900463ffffffff9081166501000000000090920481169190910181169082161061160457600093505050506116ca565b8254825463ffffffff62010000909204821683039160009169010000000000000000009004811690819084168161163757fe5b04029050600061167e8560000160059054906101000a900463ffffffff1663ffffffff166116788463ffffffff168960010154611a0490919063ffffffff16565b90611a5d565b905060006116998288600101546116d090919063ffffffff16565b9050866001015481111580156116b3575086600101548211155b6116bc57600080fd5b96506116ca95505050505050565b92915050565b600082821115611727576040805162461bcd60e51b815260206004820152601e60248201527f536166654d6174683a207375627472616374696f6e206f766572666c6f770000604482015290519081900360640190fd5b50900390565b6000806117478385600101546116d090919063ffffffff16565b9050836003015481101561177c578015801561176957508354610100900460ff165b61177257600080fd5b60009150506116ca565b60006117958560030154836116d090919063ffffffff16565b9050846001015481111580156117bd5750600185015460038601546117ba9083611987565b11155b80156117c95750818111155b80156117d9575084600101548211155b6117e257600080fd5b949350505050565b6001600160a01b03821660009081526002602052604081206117e281611810868661154d565b61172d565b6000811161185f576040805162461bcd60e51b81526020600482015260126024820152710616d6f756e74206d757374206265203e20360741b604482015290519081900360640190fd5b611867610ddd565b6001600160a01b03166370a08231306040518263ffffffff1660e01b815260040180826001600160a01b0316815260200191505060206040518083038186803b1580156118b357600080fd5b505afa1580156118c7573d6000803e3d6000fd5b505050506040513d60208110156118dd57600080fd5b505181111561191d5760405162461bcd60e51b8152600401808060200182810382526021815260200180611b4f6021913960400191505060405180910390fd5b6001600160a01b0382166000908152600260205260409020600181015460039091015461194a9083611987565b1115610ef85760405162461bcd60e51b8152600401808060200182810382526030815260200180611b706030913960400191505060405180910390fd5b6000828201838110156119e1576040805162461bcd60e51b815260206004820152601b60248201527f536166654d6174683a206164646974696f6e206f766572666c6f770000000000604482015290519081900360640190fd5b9392505050565b600063ffffffff8216156119fc57816116ca565b6116ca610aad565b600082611a13575060006116ca565b82820282848281611a2057fe5b04146119e15760405162461bcd60e51b8152600401808060200182810382526021815260200180611aeb6021913960400191505060405180910390fd5b6000808211611ab3576040805162461bcd60e51b815260206004820152601a60248201527f536166654d6174683a206469766973696f6e206279207a65726f000000000000604482015290519081900360640190fd5b818381611abc57fe5b04939250505056fe4f776e61626c653a206e6577206f776e657220697320746865207a65726f2061646472657373536166654d6174683a206d756c7469706c69636174696f6e206f766572666c6f774f776e61626c653a2063616c6c6572206973206e6f7420746865206f776e6572696e76616c696420636c6966662f6475726174696f6e20666f7220696e74657276616c616d6f756e74206d757374206265203c3d2063757272656e742062616c616e63656e657720636c61696d656420616d6f756e74206d757374206265203c3d20746f74616c206772616e7420616d6f756e74a26469706673582212209430a4487f9cfc5d54a0ac1f9edf53d986e85534e8aadc87813347b7756f00b164736f6c634300060c0033",
  "immutableReferences": {},
  "source": "// SPDX-License-Identifier: MIT\n\npragma solidity 0.6.12;\n\nimport \"@openzeppelin/contracts/access/Ownable.sol\";\nimport \"@openzeppelin/contracts/utils/Context.sol\";\nimport \"@openzeppelin/contracts/token/ERC20/IERC20.sol\";\nimport \"@openzeppelin/contracts/math/SafeMath.sol\";\nimport \"./TokenVestingInterface.sol\";\n\n/**\n * @title Contract for token vesting schedules\n *\n * @dev Contract which gives the ability to act as a pool of funds for allocating\n *   tokens to any number of other addresses. Token grants support the ability to vest over time in\n *   accordance a predefined vesting schedule. A given wallet can receive no more than one token grant.\n */\ncontract TokenVesting is TokenVestingInterface, Context, Ownable {\n  using SafeMath for uint256;\n\n  // Date-related constants for sanity-checking dates to reject obvious erroneous inputs\n  // and conversions from seconds to days and years that are more or less leap year-aware.\n  uint32 private constant _THOUSAND_YEARS_DAYS = 365243; /* See https://www.timeanddate.com/date/durationresult.html?m1=1&d1=1&y1=2000&m2=1&d2=1&y2=3000 */\n  uint32 private constant _TEN_YEARS_DAYS = _THOUSAND_YEARS_DAYS / 100; /* Includes leap years (though it doesn't really matter) */\n  uint32 private constant _SECONDS_PER_DAY = 24 * 60 * 60; /* 86400 seconds in a day */\n  uint32 private constant _JAN_1_2000_SECONDS = 946684800; /* Saturday, January 1, 2000 0:00:00 (GMT) (see https://www.epochconverter.com/) */\n  uint32 private constant _JAN_1_2000_DAYS =\n    _JAN_1_2000_SECONDS / _SECONDS_PER_DAY;\n  uint32 private constant _JAN_1_3000_DAYS =\n    _JAN_1_2000_DAYS + _THOUSAND_YEARS_DAYS;\n\n  modifier onlyOwnerOrSelf(address account) {\n    require(\n      _msgSender() == owner() || _msgSender() == account,\n      \"onlyOwnerOrSelf\"\n    );\n    _;\n  }\n\n  mapping(address => vestingSchedule) private _vestingSchedules;\n  mapping(address => tokenGrant) private _tokenGrants;\n  address[] private _allBeneficiaries;\n  IERC20 private _token;\n\n  constructor(IERC20 token_) public {\n    require(address(token_) != address(0), \"token must be non-zero address\");\n    _token = token_;\n  }\n\n  function token() public view override returns (IERC20) {\n    return _token;\n  }\n\n  function kill(address payable beneficiary) external override onlyOwner {\n    _withdrawTokens(beneficiary, token().balanceOf(address(this)));\n    selfdestruct(beneficiary);\n  }\n\n  function withdrawTokens(address beneficiary, uint256 amount)\n    external\n    override\n    onlyOwner\n  {\n    _withdrawTokens(beneficiary, amount);\n  }\n\n  function _withdrawTokens(address beneficiary, uint256 amount) internal {\n    require(amount > 0, \"amount must be > 0\");\n    require(\n      amount <= token().balanceOf(address(this)),\n      \"amount must be <= current balance\"\n    );\n\n    require(token().transfer(beneficiary, amount));\n  }\n\n  // =========================================================================\n  // === Methods for claiming tokens.\n  // =========================================================================\n\n  function claimVestingTokens(address beneficiary)\n    external\n    override\n    onlyOwnerOrSelf(beneficiary)\n  {\n    _claimVestingTokens(beneficiary);\n  }\n\n  function claimVestingTokensForAll() external override onlyOwner {\n    for (uint256 i = 0; i < _allBeneficiaries.length; i++) {\n      _claimVestingTokens(_allBeneficiaries[i]);\n    }\n  }\n\n  function _claimVestingTokens(address beneficiary) internal {\n    uint256 amount = _getAvailableAmount(beneficiary, 0);\n    if (amount > 0) {\n      _deliverTokens(beneficiary, amount);\n      _tokenGrants[beneficiary].claimedAmount = _tokenGrants[beneficiary]\n        .claimedAmount\n        .add(amount);\n      emit VestingTokensClaimed(beneficiary, amount);\n    }\n  }\n\n  function _deliverTokens(address beneficiary, uint256 amount) internal {\n    require(amount > 0, \"amount must be > 0\");\n    require(\n      amount <= token().balanceOf(address(this)),\n      \"amount must be <= current balance\"\n    );\n    require(\n      _tokenGrants[beneficiary].claimedAmount.add(amount) <=\n        _tokenGrants[beneficiary].amount,\n      \"new claimed amount must be <= total grant amount\"\n    );\n\n    require(token().transfer(beneficiary, amount));\n  }\n\n  // =========================================================================\n  // === Methods for administratively creating a vesting schedule for an account.\n  // =========================================================================\n\n  /**\n   * @dev This one-time operation permanently establishes a vesting schedule in the given account.\n   *\n   * @param cliffDuration = Duration of the cliff, with respect to the grant start day, in days.\n   * @param duration = Duration of the vesting schedule, with respect to the grant start day, in days.\n   * @param interval = Number of days between vesting increases.\n   * @param isRevocable = True if the grant can be revoked (i.e. was a gift) or false if it cannot\n   *   be revoked (i.e. tokens were purchased).\n   */\n  function setVestingSchedule(\n    address vestingLocation,\n    uint32 cliffDuration,\n    uint32 duration,\n    uint32 interval,\n    bool isRevocable\n  ) external override onlyOwner {\n    _setVestingSchedule(\n      vestingLocation,\n      cliffDuration,\n      duration,\n      interval,\n      isRevocable\n    );\n  }\n\n  function _setVestingSchedule(\n    address vestingLocation,\n    uint32 cliffDuration,\n    uint32 duration,\n    uint32 interval,\n    bool isRevocable\n  ) internal {\n    // Check for a valid vesting schedule given (disallow absurd values to reject likely bad input).\n    require(\n      duration > 0 &&\n        duration <= _TEN_YEARS_DAYS &&\n        cliffDuration < duration &&\n        interval >= 1,\n      \"invalid vesting schedule\"\n    );\n\n    // Make sure the duration values are in harmony with interval (both should be an exact multiple of interval).\n    require(\n      duration % interval == 0 && cliffDuration % interval == 0,\n      \"invalid cliff/duration for interval\"\n    );\n\n    // Create and populate a vesting schedule.\n    _vestingSchedules[vestingLocation] = vestingSchedule(\n      isRevocable,\n      cliffDuration,\n      duration,\n      interval\n    );\n\n    // Emit the event.\n    emit VestingScheduleCreated(\n      vestingLocation,\n      cliffDuration,\n      duration,\n      interval,\n      isRevocable\n    );\n  }\n\n  // =========================================================================\n  // === Token grants (general-purpose)\n  // === Methods to be used for administratively creating one-off token grants with vesting schedules.\n  // =========================================================================\n\n  /**\n   * @dev Grants tokens to an account.\n   *\n   * @param beneficiary = Address to which tokens will be granted.\n   * @param vestingAmount = The number of tokens subject to vesting.\n   * @param startDay = Start day of the grant's vesting schedule, in days since the UNIX epoch\n   *   (start of day). The startDay may be given as a date in the future or in the past, going as far\n   *   back as year 2000.\n   * @param vestingLocation = Account where the vesting schedule is held (must already exist).\n   */\n  function _addGrant(\n    address beneficiary,\n    uint256 vestingAmount,\n    uint32 startDay,\n    address vestingLocation\n  ) internal {\n    // Make sure no prior grant is in effect.\n    require(!_tokenGrants[beneficiary].isActive, \"grant already exists\");\n\n    // Check for valid vestingAmount\n    require(\n      vestingAmount > 0 &&\n        startDay >= _JAN_1_2000_DAYS &&\n        startDay < _JAN_1_3000_DAYS,\n      \"invalid vesting params\"\n    );\n\n    // Create and populate a token grant, referencing vesting schedule.\n    _tokenGrants[beneficiary] = tokenGrant(\n      true, // isActive\n      false, // wasRevoked\n      startDay,\n      vestingAmount,\n      vestingLocation, // The wallet address where the vesting schedule is kept.\n      0 // claimedAmount\n    );\n    _allBeneficiaries.push(beneficiary);\n\n    // Emit the event.\n    emit VestingTokensGranted(\n      beneficiary,\n      vestingAmount,\n      startDay,\n      vestingLocation\n    );\n  }\n\n  /**\n   * @dev Grants tokens to an address, including a portion that will vest over time\n   * according to a set vesting schedule. The overall duration and cliff duration of the grant must\n   * be an even multiple of the vesting interval.\n   *\n   * @param beneficiary = Address to which tokens will be granted.\n   * @param vestingAmount = The number of tokens subject to vesting.\n   * @param startDay = Start day of the grant's vesting schedule, in days since the UNIX epoch\n   *   (start of day). The startDay may be given as a date in the future or in the past, going as far\n   *   back as year 2000.\n   * @param duration = Duration of the vesting schedule, with respect to the grant start day, in days.\n   * @param cliffDuration = Duration of the cliff, with respect to the grant start day, in days.\n   * @param interval = Number of days between vesting increases.\n   * @param isRevocable = True if the grant can be revoked (i.e. was a gift) or false if it cannot\n   *   be revoked (i.e. tokens were purchased).\n   */\n  function addGrant(\n    address beneficiary,\n    uint256 vestingAmount,\n    uint32 startDay,\n    uint32 duration,\n    uint32 cliffDuration,\n    uint32 interval,\n    bool isRevocable\n  ) public override onlyOwner {\n    // Make sure no prior vesting schedule has been set.\n    require(!_tokenGrants[beneficiary].isActive, \"grant already exists\");\n\n    // The vesting schedule is unique to this wallet and so will be stored here,\n    _setVestingSchedule(\n      beneficiary,\n      cliffDuration,\n      duration,\n      interval,\n      isRevocable\n    );\n\n    // Issue tokens to the beneficiary, using beneficiary's own vesting schedule.\n    _addGrant(beneficiary, vestingAmount, startDay, beneficiary);\n  }\n\n  function addGrantWithScheduleAt(\n    address beneficiary,\n    uint256 vestingAmount,\n    uint32 startDay,\n    address vestingLocation\n  ) external override onlyOwner {\n    // Issue tokens to the beneficiary, using custom vestingLocation.\n    _addGrant(beneficiary, vestingAmount, startDay, vestingLocation);\n  }\n\n  function addGrantFromToday(\n    address beneficiary,\n    uint256 vestingAmount,\n    uint32 duration,\n    uint32 cliffDuration,\n    uint32 interval,\n    bool isRevocable\n  ) external override onlyOwner {\n    addGrant(\n      beneficiary,\n      vestingAmount,\n      today(),\n      duration,\n      cliffDuration,\n      interval,\n      isRevocable\n    );\n  }\n\n  // =========================================================================\n  // === Check vesting.\n  // =========================================================================\n  function today() public view virtual override returns (uint32 dayNumber) {\n    return uint32(block.timestamp / _SECONDS_PER_DAY);\n  }\n\n  function _effectiveDay(uint32 onDayOrToday)\n    internal\n    view\n    returns (uint32 dayNumber)\n  {\n    return onDayOrToday == 0 ? today() : onDayOrToday;\n  }\n\n  /**\n   * @dev Determines the amount of tokens that have not vested in the given account.\n   *\n   * The math is: not vested amount = vesting amount * (end date - on date)/(end date - start date)\n   *\n   * @param grantHolder = The account to check.\n   * @param onDayOrToday = The day to check for, in days since the UNIX epoch. Can pass\n   *   the special value 0 to indicate today.\n   */\n  function _getNotVestedAmount(address grantHolder, uint32 onDayOrToday)\n    internal\n    view\n    returns (uint256 amountNotVested)\n  {\n    tokenGrant storage grant = _tokenGrants[grantHolder];\n    vestingSchedule storage vesting = _vestingSchedules[grant.vestingLocation];\n    uint32 onDay = _effectiveDay(onDayOrToday);\n\n    // If there's no schedule, or before the vesting cliff, then the full amount is not vested.\n    if (!grant.isActive || onDay < grant.startDay + vesting.cliffDuration) {\n      // None are vested (all are not vested)\n      return grant.amount;\n    }\n    // If after end of vesting, then the not vested amount is zero (all are vested).\n    else if (onDay >= grant.startDay + vesting.duration) {\n      // All are vested (none are not vested)\n      return uint256(0);\n    }\n    // Otherwise a fractional amount is vested.\n    else {\n      // Compute the exact number of days vested.\n      uint32 daysVested = onDay - grant.startDay;\n      // Adjust result rounding down to take into consideration the interval.\n      uint32 effectiveDaysVested = (daysVested / vesting.interval) *\n        vesting.interval;\n\n      // Compute the fraction vested from schedule using 224.32 fixed point math for date range ratio.\n      // Note: This is safe in 256-bit math because max value of X billion tokens = X*10^27 wei, and\n      // typical token amounts can fit into 90 bits. Scaling using a 32 bits value results in only 125\n      // bits before reducing back to 90 bits by dividing. There is plenty of room left, even for token\n      // amounts many orders of magnitude greater than mere billions.\n      uint256 vested = grant.amount.mul(effectiveDaysVested).div(\n        vesting.duration\n      );\n      uint256 result = grant.amount.sub(vested);\n      require(result <= grant.amount && vested <= grant.amount);\n\n      return result;\n    }\n  }\n\n  /**\n   * @dev Computes the amount of funds in the given account which are available for use as of\n   * the given day, i.e. the claimable amount.\n   *\n   * The math is: available amount = totalGrantAmount - notVestedAmount - claimedAmount.\n   *\n   * @param grantHolder = The account to check.\n   * @param onDay = The day to check for, in days since the UNIX epoch.\n   */\n  function _getAvailableAmount(address grantHolder, uint32 onDay)\n    internal\n    view\n    returns (uint256 amountAvailable)\n  {\n    tokenGrant storage grant = _tokenGrants[grantHolder];\n    return\n      _getAvailableAmountImpl(grant, _getNotVestedAmount(grantHolder, onDay));\n  }\n\n  function _getAvailableAmountImpl(\n    tokenGrant storage grant,\n    uint256 notVastedOnDay\n  ) internal view returns (uint256 amountAvailable) {\n    uint256 vested = grant.amount.sub(notVastedOnDay);\n    if (vested < grant.claimedAmount) {\n      // .sub below will fail, only possible when grant revoked\n      require(vested == 0 && grant.wasRevoked);\n      return 0;\n    }\n\n    uint256 result = vested.sub(grant.claimedAmount);\n    require(\n      result <= grant.amount &&\n        grant.claimedAmount.add(result) <= grant.amount &&\n        result <= vested &&\n        vested <= grant.amount\n    );\n\n    return result;\n  }\n\n  /**\n   * @dev returns all information about the grant's vesting as of the given day\n   * for the given account. Only callable by the account holder or a contract owner.\n   *\n   * @param grantHolder = The address to do this for.\n   * @param onDayOrToday = The day to check for, in days since the UNIX epoch. Can pass\n   *   the special value 0 to indicate today.\n   * return = A tuple with the following values:\n   *   amountVested = the amount that is already vested\n   *   amountNotVested = the amount that is not yet vested (equal to vestingAmount - vestedAmount)\n   *   amountOfGrant = the total amount of tokens subject to vesting.\n   *   amountAvailable = the amount of funds in the given account which are available for use as of the given day\n   *   amountClaimed = out of amountVested, the amount that has been already transferred to beneficiary\n   *   vestStartDay = starting day of the grant (in days since the UNIX epoch).\n   *   isActive = true if the vesting schedule is currently active.\n   *   wasRevoked = true if the vesting schedule was revoked.\n   */\n  function getGrantInfo(address grantHolder, uint32 onDayOrToday)\n    external\n    view\n    override\n    returns (\n      uint256 amountVested,\n      uint256 amountNotVested,\n      uint256 amountOfGrant,\n      uint256 amountAvailable,\n      uint256 amountClaimed,\n      uint32 vestStartDay,\n      bool isActive,\n      bool wasRevoked\n    )\n  {\n    tokenGrant storage grant = _tokenGrants[grantHolder];\n    uint256 notVestedAmount = _getNotVestedAmount(grantHolder, onDayOrToday);\n\n    return (\n      grant.amount.sub(notVestedAmount),\n      notVestedAmount,\n      grant.amount,\n      _getAvailableAmountImpl(grant, notVestedAmount),\n      grant.claimedAmount,\n      grant.startDay,\n      grant.isActive,\n      grant.wasRevoked\n    );\n  }\n\n  function getScheduleAtInfo(address vestingLocation)\n    public\n    view\n    override\n    returns (\n      bool isRevocable,\n      uint32 vestDuration,\n      uint32 cliffDuration,\n      uint32 vestIntervalDays\n    )\n  {\n    vestingSchedule storage vesting = _vestingSchedules[vestingLocation];\n\n    return (\n      vesting.isRevocable,\n      vesting.duration,\n      vesting.cliffDuration,\n      vesting.interval\n    );\n  }\n\n  function getScheduleInfo(address grantHolder)\n    external\n    view\n    override\n    returns (\n      bool isRevocable,\n      uint32 vestDuration,\n      uint32 cliffDuration,\n      uint32 vestIntervalDays\n    )\n  {\n    tokenGrant storage grant = _tokenGrants[grantHolder];\n    return getScheduleAtInfo(grant.vestingLocation);\n  }\n\n  // =========================================================================\n  // === Grant revocation\n  // =========================================================================\n\n  /**\n   * @dev If the account has a revocable grant, this forces the grant to end immediately.\n   * After this function is called, getGrantInfo will return incomplete data\n   * and there will be no possibility to claim non-claimed tokens\n   *\n   * @param grantHolder = Address to which tokens will be granted.\n   */\n  function revokeGrant(address grantHolder) external override onlyOwner {\n    tokenGrant storage grant = _tokenGrants[grantHolder];\n    vestingSchedule storage vesting = _vestingSchedules[grant.vestingLocation];\n\n    // Make sure a vesting schedule has previously been set.\n    require(grant.isActive, \"no active grant\");\n    // Make sure it's revocable.\n    require(vesting.isRevocable, \"irrevocable\");\n\n    // Kill the grant by updating wasRevoked and isActive.\n    _tokenGrants[grantHolder].wasRevoked = true;\n    _tokenGrants[grantHolder].isActive = false;\n\n    // Emits the GrantRevoked event.\n    emit GrantRevoked(grantHolder);\n  }\n}",
  "sourcePath": "/Users/denizdalkilic/Documents/MarhabaDeFi/mrhb-token/contracts/TokenVesting.sol",
  "compiler": {
    "name": "solc",
    "version": "0.6.12+commit.27d51765.Emscripten.clang"
  },
  "schemaVersion": "3.4.3",
  "updatedAt": "2021-12-07T18:09:13.384Z",
  "devdoc": {
    "details": "Contract which gives the ability to act as a pool of funds for allocating   tokens to any number of other addresses. Token grants support the ability to vest over time in   accordance a predefined vesting schedule. A given wallet can receive no more than one token grant.",
    "kind": "dev",
    "methods": {
      "addGrant(address,uint256,uint32,uint32,uint32,uint32,bool)": {
        "details": "Grants tokens to an address, including a portion that will vest over time according to a set vesting schedule. The overall duration and cliff duration of the grant must be an even multiple of the vesting interval.",
        "params": {
          "beneficiary": "= Address to which tokens will be granted.",
          "cliffDuration": "= Duration of the cliff, with respect to the grant start day, in days.",
          "duration": "= Duration of the vesting schedule, with respect to the grant start day, in days.",
          "interval": "= Number of days between vesting increases.",
          "isRevocable": "= True if the grant can be revoked (i.e. was a gift) or false if it cannot   be revoked (i.e. tokens were purchased).",
          "startDay": "= Start day of the grant's vesting schedule, in days since the UNIX epoch   (start of day). The startDay may be given as a date in the future or in the past, going as far   back as year 2000.",
          "vestingAmount": "= The number of tokens subject to vesting."
        }
      },
      "getGrantInfo(address,uint32)": {
        "details": "returns all information about the grant's vesting as of the given day for the given account. Only callable by the account holder or a contract owner.",
        "params": {
          "grantHolder": "= The address to do this for.",
          "onDayOrToday": "= The day to check for, in days since the UNIX epoch. Can pass   the special value 0 to indicate today. return = A tuple with the following values:   amountVested = the amount that is already vested   amountNotVested = the amount that is not yet vested (equal to vestingAmount - vestedAmount)   amountOfGrant = the total amount of tokens subject to vesting.   amountAvailable = the amount of funds in the given account which are available for use as of the given day   amountClaimed = out of amountVested, the amount that has been already transferred to beneficiary   vestStartDay = starting day of the grant (in days since the UNIX epoch).   isActive = true if the vesting schedule is currently active.   wasRevoked = true if the vesting schedule was revoked."
        }
      },
      "owner()": {
        "details": "Returns the address of the current owner."
      },
      "renounceOwnership()": {
        "details": "Leaves the contract without owner. It will not be possible to call `onlyOwner` functions anymore. Can only be called by the current owner. NOTE: Renouncing ownership will leave the contract without an owner, thereby removing any functionality that is only available to the owner."
      },
      "revokeGrant(address)": {
        "details": "If the account has a revocable grant, this forces the grant to end immediately. After this function is called, getGrantInfo will return incomplete data and there will be no possibility to claim non-claimed tokens",
        "params": {
          "grantHolder": "= Address to which tokens will be granted."
        }
      },
      "setVestingSchedule(address,uint32,uint32,uint32,bool)": {
        "details": "This one-time operation permanently establishes a vesting schedule in the given account.",
        "params": {
          "cliffDuration": "= Duration of the cliff, with respect to the grant start day, in days.",
          "duration": "= Duration of the vesting schedule, with respect to the grant start day, in days.",
          "interval": "= Number of days between vesting increases.",
          "isRevocable": "= True if the grant can be revoked (i.e. was a gift) or false if it cannot   be revoked (i.e. tokens were purchased)."
        }
      },
      "transferOwnership(address)": {
        "details": "Transfers ownership of the contract to a new account (`newOwner`). Can only be called by the current owner."
      }
    },
    "title": "Contract for token vesting schedules",
    "version": 1
  },
  "userdoc": {
    "kind": "user",
    "methods": {},
    "version": 1
  }
}